:020000040800F2
:1000000000180020494A0008DD040008DF04000849
:1000100000000000000000000000000000000000E0
:10002000000000000000000000000000E1040008E3
:100030000000000000000000E3040008E5040008E0
:10004000C94A0008C94A0008C94A0008C94A000844
:10005000C94A0008C94A0008C94A0008C94A000834
:10006000C94A0008C94A0008C94A0008C94A000824
:10007000C94A0008C94A0008C94A0008ED04000836
:10008000C94A00080000000000000000C94A00083A
:1000900000000000C94A0008C94A0008C94A00080F
:1000A00000000000FD040008C94A0008C94A000811
:1000B000C94A000800000000C94A00080D050008F0
:1000C000002934D00123002210B488422CD301240B
:1000D0002407A14204D2814202D209011B01F8E7A0
:1000E000E400A14204D2814202D249005B00F8E759
:1000F000884201D3401A1A434C08A04202D3001B85
:100100005C0822438C08A04202D3001B9C082243B7
:10011000CC08A04202D3001BDC082243002803D0F5
:100120001B0901D00909E3E7100010BC704701B5B5
:10013000002000F00BF802BD0029F8D003B5FFF74E
:10014000C1FF0EBC4243891A1847C0467047C046DB
:1001500010B5064C2378002B07D1054B002B02D09D
:10016000044800E000BF0123237010BD08020020F6
:1001700000000000244B0008044B10B5002B03D0F6
:100180000349044800E000BF10BDC0460000000065
:100190000C020020244B000830B589B003AC1422B7
:1001A0000021200004F091FC174B5A698021C903FB
:1001B0000A435A615A690A400092009A5A6980219A
:1001C00089020A435A615A690A400192019A5A699E
:1001D0008021C9020A435A615B690B400293029B6A
:1001E0000A4D00224021280002F0FCFF4023039327
:1001F0003F3B04930023059306932100280002F05F
:1002000033FF09B030BDC046001002400004004872
:1002100072B6FEE710B51148114B036082235B00F4
:10022000436000238360E022D200C2600361436127
:10023000802292008261E93AFF3AC261036243621E
:100240008362113AC26203630833436303F080F9A7
:10025000002800D110BDFFF7DBFFC0467002002070
:100260000030014000B587B01022002102A804F040
:100270002CFC08220021684604F027FC1448802347
:10028000DB050360134B436000238360124AC260A6
:100290000361836103F048FC002813D180235B01D4
:1002A00002930B4802A903F077FC00280CD16946A1
:1002B000002300930193064803F0F2FC002805D1C7
:1002C00007B000BDFFF7A4FFFFF7A2FFFFF7A0FFF5
:1002D00028020020E7030000DC05000010B598B0FC
:1002E0000BAC34220021200004F0EFFB102200218F
:1002F00007A804F0EAFB1822002101A804F0E5FB9E
:1003000020230B931F3B1393200002F027FA0028B1
:1003100018D107A807230793043B43600023836099
:10032000C360012102F0FEFC00280DD101A880234A
:100330009B0201930023436102F096FD002805D142
:1003400018B010BDFFF764FFFFF762FFFFF760FF13
:1003500010B502F055FEFFF7C1FFFFF71DFFFFF7D5
:1003600059FF00F04FF9FFF77DFF012240211548AA
:1003700002F038FF0022002A18D1110009E0124BC8
:100380005418600000190024C4541B189C705C7041
:1003900001310029F3D00132EDE70B4B00221A7036
:1003A00000F03CF8FA20400002F04CFE064C01211F
:1003B000200000F00BF82378002BEED1024B142222
:1003C0001A70EDE70004004824020020F0B5C6468C
:1003D00000B5804600228A421CD3002080BCB8466B
:1003E000F0BD53009B18434416197500AD19660003
:1003F0003619F75CBC46084F60467855681C9B1957
:100400005E783E5402359B787B550134002CE8D051
:100410000132E0E70024F9E748030020F8B52A4B51
:100420001B685D00ED18294BED18002423E06201E4
:1004300099005218264900268E54571CCE55971CF9
:100440000136CE5503328E5440080133DBB2072B00
:1004500010D82A5D1042EAD16201990052181C4955
:1004600000268E54571CCE55971CCE5503320136AC
:100470008E54E9E70134022C05D8164B00221A5598
:1004800000238020E3E700210723002402E0013B52
:10049000DBB201315F290CD80E4D2A5D0C48405C5F
:1004A00098400243D2B22A55002BF0D101340833D0
:1004B000EDE7084900230B734B738B7306480F223B
:1004C00003F0C8F80020F8BD4403002048030020D2
:1004D000E4020020D402002070020020FEE7FEE7C4
:1004E0007047704710B502F09BFD10BD10B5024873
:1004F00003F02AFA10BDC0462802002010B50248B9
:1005000003F056F910BDC0467002002010B5024835
:1005100001F0EAFE10BDC0466808002010B5FFF7E4
:100520007DFF10BD82B00A4B996901221143996188
:1005300099690A400092009ADA69802149050A43C4
:10054000DA61DB690B400193019B02B07047C04642
:100550000010024010B588B004001422002103A846
:1005600004F0B3FA2268164B9A4201D008B010BDCD
:10057000144B9A69802149010A439A619A690A4099
:100580000192019A5A69802189020A435A615B6982
:100590000B400293029B03A9A02303939E3B4B6055
:1005A0000133CB609020C00502F05EFD00220021E7
:1005B000192002F08FFE192002F090FED6E7C04607
:1005C000003001400010024000B583B00268802373
:1005D000DB059A4201D003B000BD094AD16901236D
:1005E0001943D161D26913400193019B002200217C
:1005F0000F2002F06FFE0F2002F070FEEBE7C04606
:100600000010024010B512491248002203F07DFB91
:10061000002811D110490F4803F093FB00280ED198
:100620000E490C4804F006FA00280BD1094803F0E3
:1006300091FB002809D110BDFFF7EAFDEAE7FFF7BB
:10064000E7FDEDE7FFF7E4FDF0E7FFF7E1FDF2E797
:10065000340000204C030020D00100205C0000206A
:1006600012230B80004870472000002004230B80D9
:10067000004870471C00002030B500230AE05D00F0
:1006800037344C5500015C0001340C1900252570ED
:100690000133DBB2934206D2040F092CEFD85D0080
:1006A00030344C55EEE730BD70B50B4B18680B4B32
:1006B0001D680B4B1B68C018002800D170BD094C89
:1006C00008222100FFF7D8FF210010310422280062
:1006D000FFF7D2FFF2E7C046ACF7FF1FB0F7FF1FEE
:1006E000B4F7FF1F0200002010B51A230B80FFF79C
:1006F000DBFF014810BDC0460000002010B50A0015
:10070000002805D10549064803F0F7FF034810BD4E
:100710000249034803F0F1FFF8E7C0461006002045
:100720003C4B000810B50A00034C0448210003F0BC
:10073000E4FF200010BDC046100600205C4B0008FE
:1007400010B50A00002805D10549064803F0D5FF79
:10075000034810BD0249034803F0CFFFF8E7C04645
:1007600010060020704B000810B50A00002805D1C3
:100770000549064803F0C1FF034810BD024903487C
:1007800003F0BBFFF8E7C04610060020844B0008CA
:10079000022804D005D8002800D00220704701208C
:1007A000FCE70220FAE710B5FFF798FD10BD000046
:1007B00000B583B002680C4B9A4201D003B000BD73
:1007C0000A4BDA69802109040A43DA61DB690B40CC
:1007D0000193019B002200211F2002F07BFD1F20BE
:1007E00002F07CFDEAE7C046005C004000100240D9
:1007F00010B50100B6239B00C058403B9C466144A5
:1008000003F0C4FA10BD10B50300B6229200805860
:100810008A005218D2009B186533FF331A6803F020
:10082000E7FA10BD10B50300B622920080588A0086
:100830005218D2009B185A6A03F02CFB10BD10B559
:10084000B6239B00C05803F0E7FB10BD70B5040051
:100850004379022B09D1B625AD006059012103F07F
:10086000BDFB605903F08BFB70BDFFF7D1FCF2E7D5
:1008700010B50400B6239B00C05803F0B3FB637AA5
:10088000002B04D0024A136906210B43136110BDEB
:1008900000ED00E010B50400437A002B05D1B6232B
:1008A0009B00E05803F0AAFB10BD044A136906211F
:1008B0008B431361FFF777FFF1E7C04600ED00E0DF
:1008C00070B504001A48B6239B00C450183BE05092
:1008D000184B036008230371063B4371C371002367
:1008E000437201228272C37200F0D4FF00281BD130
:1008F000B025AD00605918230022002101F0FBFE55
:10090000605958230022802101F0F5FE6059982398
:100910000022812101F0EFFE6059D823002201213D
:1009200001F0E9FE002070BDFFF772FCE0E7C04671
:1009300068080020005C004010B5B0239B00C05840
:1009400001F008F8FFF724FF10BD10B514001A00DD
:10095000B0239B00C058230001F086FDFFF718FF6D
:1009600010BD10B5B0239B00C05801F0BBFDFFF7D0
:100970000FFF10BD10B5B0239B00C05801F041FE21
:10098000FFF706FF10BD10B5B0239B00C05801F063
:1009900072FEFFF7FDFE10BDB0239B00C3584AB2A4
:1009A000002A09DB7F2211408A005218D2009B18CE
:1009B0005333FF33187870477F2211408A00521852
:1009C000D2009B18987CF6E710B5B0239B00C05866
:1009D00001F074FCFFF7DCFE10BD10B5B024A400DC
:1009E000005901F0DBFDFFF7D3FE10BD10B5B024B8
:1009F000A400005901F0ADFDFFF7CAFE10BD0000D4
:100A0000004870471008002070470000442300226F
:100A1000C252043B014AC2520020704780BFFFFF10
:100A20004022835A02490B40835200207047C0463F
:100A30007F40000082B00091019240220123835246
:100A400000238352043283520C328352002002B0BE
:100A500070470000F0B503000D78AD0045192A88F5
:100A6000B9480240C878022857D00AD8002811D0C7
:100A7000012804D18020C000024300200DE00120A5
:100A80000BE0032804D1C020C0000243002004E092
:100A9000012002E08024A4002243AC4C224392B205
:100AA0002A800D78AA009A181688A94F3E4035432F
:100AB0002C43A4B214800A7B002A00D09EE04A781E
:100AC000002A37D050229C5A1C190A78D2001219D9
:100AD0008024E400A4466244CC8864086400148046
:100AE0000A7892009A181488640605D515883D4046
:100AF000984C2C43A4B21480CA78012A0FD00A78EB
:100B000092009A18138894490B4020214B409BB2C5
:100B10008E490B439BB21380CAE00020BDE70A78E0
:100B200092009B1819888C4A1140884A0A4392B255
:100B30001A80BDE050255C5B1C190A78D20012199E
:100B4000864CA4466244CC886408640014805C5BD4
:100B50001C190A78D2001219814CA44662441488E8
:100B6000A405A40D14800C69002C21D114887D4D9E
:100B70002C43A4B214800A7892009A181488640452
:100B800006D51588724C2540774C2C43A4B21480AE
:100B90000A78002A25D192009A18138873490B40CD
:100BA000C02189015940694B0B439BB213807FE000
:100BB0003E2C09D86508E40700D501351488AD023C
:100BC000ADB22C431480D6E76509E40600D1013D9F
:100BD0001488AD02ADB22543624C2C43A4B21480FC
:100BE000C9E792009A18138860490B408021890157
:100BF0005940564B0B439BB2138059E0CA78022AE6
:100C000057D00A7892009A181588594C25404F4CB5
:100C10002C43A4B2148050255C5B1C190A78D200C6
:100C200012198024E400A44662440C89640864001C
:100C300014805C5B1C190A78D2001219474CA44638
:100C400062444C896408640014804A78002A3BD1CD
:100C50000A7892009A181488640406D515883C4CCA
:100C60002540414C2C43A4B214800A7892009A1873
:100C70001488640606D51588354C2540354C2C4320
:100C8000A4B214800C78A4001C192588374A15409A
:100C9000C02292016A402D4D2A4392B222800A78E6
:100CA00092009B181A882C490A402A4392B21A8053
:100CB000F0BD0A7892009A181588254C25402D4CD5
:100CC0002C43A4B21480A6E70A7892009A181488DC
:100CD000640406D515881E4C2540234C2C43A4B231
:100CE00014800A7892009A181488640606D515882C
:100CF000174C2540174C2C43A4B21480CA78012A03
:100D000017D00C78A4001C192288134D2A402025E6
:100D10006A4092B20D4D2A4392B222800A78920024
:100D20009B181988114A1140084A0A4392B21A8046
:100D3000BEE70A7892009A181588074C2540034CA4
:100D40002C43A4B21480E9E78F89FFFF8080FFFF66
:100D50008F8FFFFFC080FFFFBF8FFFFF04040000E5
:100D6000060400000080FFFF80C0FFFF8FBFFFFF71
:100D70008F8EFFFF8081FFFF10B50B7B002B33D1DF
:100D80004B78002B18D00B789B00C3181A8852069A
:100D900006D51C884E4A14404E4A224392B21A800D
:100DA0000B789B00C31819884B4A11404B4A0A43E1
:100DB00092B21A80002010BD0B789B00C3181A88CD
:100DC000520406D51C88424A1440454A224392B236
:100DD0001A800B789B00C3181988424A11403F4A79
:100DE0000A4392B21A80E5E74B78002B37D10B7893
:100DF0009B00C3181A88520406D51C88344A144034
:100E0000374A224392B21A800B789B00C3181A8883
:100E1000520606D51C882E4A14402E4A224392B20E
:100E20001A800B789B00C3181C88294A1440294A51
:100E3000224392B21A800C78A40004192388294A0C
:100E40001340264A13439BB223800B789B00C318A0
:100E50001988214801400A4392B21A80AAE70B7808
:100E60009B00C3181A88520406D51C88184A1440DF
:100E70001B4A224392B21A800B789B00C3181A882F
:100E8000520606D51C88124A1440124A224392B2D6
:100E90001A800B789B00C3181C880D4A1440104A16
:100EA000224392B21A800C78A400041923880A4ABB
:100EB00013400A4A13439BB223800B789B00C0184F
:100EC000038808490B401A4392B2028072E7C04679
:100ED0008F8FFFFFC080FFFFBF8FFFFF8080FFFF6E
:100EE00080C0FFFF8FBFFFFF4B78002B0ED00B7829
:100EF0009B00C01803880C4A1340102253409BB239
:100F00000A4A13439BB20380002070470B789B0072
:100F1000C0180388064A1340802252015A40034BEE
:100F200013439BB20380EFE7BF8FFFFF8080FFFF7B
:100F30008FBFFFFF10B50B7B002B3AD14B78002BF6
:100F40001DD00B789B00C3181A88520606D51C8842
:100F5000194A1440194A224392B21A80CB78012BC5
:100F600027D00A7892008218138815490B40202157
:100F70004B409BB213490B439BB2138019E00B7893
:100F80009B00C3181A88520406D51C880A4A1440CC
:100F90000D4A224392B21A800B789B00C018038836
:100FA0000A4A1340C02292015A40064B13439BB297
:100FB0000380002010BDC0468F8FFFFFC080FFFF61
:100FC000BF8FFFFF8080FFFF80C0FFFF8FBFFFFF4D
:100FD000002902D14C238022C25200207047000019
:100FE0005822835A02490B439BB283520020704718
:100FF0000080FFFF4423C05A80B2704710B5013310
:101000005B0812188020C0008446624407E00C7818
:10101000487800022043108002320231013B002B4D
:10102000F5D110BD70B505000C004B78012B2ED00A
:101030000A7B002A00D06EE28B6909698B4200D8D6
:101040004CE25B1AA3615023EA5AAA182378DB000A
:101050009B18B94A944663441A889205920D1A80E7
:10106000002900D03EE21A88B4490A4392B21A809D
:1010700023789B00ED182B88B14A1340C0229201BF
:101080005A40B04B13439BB22B80002070BD8E6939
:101090000A69964200D91600217B002924D0E17804
:1010A000022941D0226A921B22622278910069189B
:1010B0000988490600D4D1E1002B00D0BDE15033AE
:1010C000EB5AEB18D200D2189B4B9C466244138813
:1010D0009B059B0D1380002E00D095E11388974946
:1010E0000B439BB21380B2E1B6B2E2886169330070
:1010F0002800FFF783FF5023EA5AAA182378DB0061
:101100009B18914A944663441E8022789200AA1844
:1011100013888E490B4030214B409BB289490B43C9
:101120009BB213800020B1E7236A9A4200D350E1BA
:1011300023789B00EB181988854A1140854A0A4399
:1011400092B21A80236A9B1B236223789A00AA1802
:101150001288520600D495E06278002A2CD15032D1
:10116000AA5AAA18DB009B18734A944663441A884B
:101170009205920D1A80002E05D11A886F490A43F4
:1011800092B21A801AE03E2E09D87208F10700D5F3
:1011900001321988920292B20A431A800EE0720953
:1011A000F10600D1013A1988920292B21143634AC2
:1011B0000A4392B21A8001E0012A26D06289B3B2B2
:1011C00061692800FFF71AFF63699B196361236A4D
:1011D0002269934224D99B1B23626378002B3CD164
:1011E0005033EA5AAA182378DB009B18564A9446D3
:1011F00063441A889205920D1A80002E14D11A8821
:101200004E490A4392B21A8029E04F32AA5AAA18CC
:10121000DB009B18484A94466344B2B21A80CDE77B
:10122000002222621E00D8E73E2E09D87208F1077C
:1012300000D501321988920292B20A431A800EE058
:101240007209F10600D1013A1988920292B2114353
:101250003A4A0A4392B21A8001E0012B06D0228951
:10126000B3B261692800FFF7C9FE4EE74F33EA5A6F
:10127000AA182378DB009B18334A94466344B2B221
:101280001A80ECE76278002A2CD15032A95A6918EA
:10129000DA0052182C4B9C46624413889B059B0D28
:1012A0001380002E05D1138824490B439BB2138071
:1012B0001AE03E2E09D87308F10700D501331188D2
:1012C0009B029BB20B4313800EE07309F10600D121
:1012D000013B11889B029BB21943184B0B439BB2F5
:1012E000138001E0012A37D02289B3B26169280056
:1012F000FFF784FE63699B196361236A2269934245
:1013000035D99B1B23626378002B4DD15033EA5AA9
:10131000AA182378DB009B18074A944663441A886E
:101320009205920D1A80002E25D11A8803490A438E
:1013300092B21A803AE0C046060400000080FFFF27
:101340008FBFFFFF8080FFFF02040000BF8FFFFF01
:101350008F8FFFFF8081FFFF4F32AA5AAA18DB0050
:101360009B18BD4A94466344B2B21A80BCE700227F
:1013700022621E00C7E73E2E09D87208F10700D589
:1013800001321988920292B20A431A800EE0720961
:10139000F10600D1013A1988920292B21143AF4A84
:1013A0000A4392B21A8001E0012B06D06289B3B2DF
:1013B00061692800FFF722FEA7E64F33EA5AAA1810
:1013C0002378DB009B18A64A94466344B2B21A8085
:1013D000ECE722789200AA181088A2490840A24996
:1013E000014389B211805022A95A69182278D2008B
:1013F000521899498C4662449BB2138022896169D4
:101400002800FFF7FBFD80E63E2E09D87308F107A0
:1014100000D5013311889B029BB20B43138016E069
:101420007309F10600D1013B11889B029BB219435D
:101430008A4B0B439BB2138009E05023EB5AEB1805
:10144000D200D218864B9C466244B3B213806289A4
:10145000B3B261692800FFF7D1FD56E6002B2CD10D
:101460005033EB5AEB18D200D2187B4B9C466244A7
:1014700013889B059B0D1380002E05D11388774997
:101480000B439BB2138022E03E2E09D87308F1076C
:1014900000D5013311889B029BB20B43138016E0E9
:1014A0007309F10600D1013B11889B029BB21943DD
:1014B0006A4B0B439BB2138009E05023EB5AEB18A5
:1014C000D200D218644B9C466244B3B21380228986
:1014D000B3B261692800FFF791FD16E60022A26110
:1014E0001900B0E53E2909D84A08C90700D50132DC
:1014F0001988920292B20A431A80B9E54A09C906CC
:1015000000D1013A1988920292B21143534A0A4318
:1015100092B21A80ACE5CA78022A3AD0012A00D0E9
:101520000EE189692269914200D8C4E0891AA1615B
:10153000002B14D15033E95A69182378DB005B186B
:1015400045498C46634419888905890D1980002A0C
:1015500000D0B4E019884148014389B2198063780A
:10156000002B00D0DDE05033E95A69182378DB0006
:101570005B183B498C46634419888905890D19809D
:10158000002A00D0B4E01A8834490A4392B21A8083
:101590006EE5002B14D15033C25A82180B78DB0051
:1015A0009B182D4A944663441A889205920D1A801E
:1015B0000A69002A1DD11A8828490A4392B21A8062
:1015C0006378002B52D15033EA5AAA182378DB00F3
:1015D0009B18234A944663441A889205920D1A80F8
:1015E0002269002A1ED11A881C490A4392B21A8025
:1015F0003EE03E2A09D85108D20700D501311A88A9
:10160000890289B20A431A80DAE75109D20600D169
:1016100001391A88890289B21143104A0A4392B2E9
:101620001A80CDE73E2A09D85108D20700D50131EA
:101630001A88890289B20A431A8019E05109D20630
:1016400000D101391A88890289B21143034A0A4339
:1016500092B21A800CE0C046020400000080FFFF36
:10166000060400008F8EFFFF8080FFFF012B16D045
:10167000E369002B00D1FBE423789B00EB181A8868
:1016800030490A408A4202D0002A00D0F0E419888A
:101690002D4A11402D4A0A4392B21A80E8E44F3392
:1016A000EA5AAA182378DB009B18294A9446634417
:1016B000228A1A80DCE70022A2610A0038E73E2A6B
:1016C00009D85108D00700D501311888890289B29C
:1016D0000143198043E75109D00600D10139188828
:1016E000890289B208431B49014389B2198036E750
:1016F0003E2A09D85108D20700D501311A8889023B
:1017000089B20A431A80B3E45109D20600D10139E3
:101710001A88890289B211430E4A0A4392B21A808A
:10172000A6E4012B00D0A3E44F33E95A69182378CB
:10173000DB005B1806498C46634492B21A8097E43A
:101740000120A3E4404000008F8FFFFFC080FFFF17
:10175000060400000080FFFF10B55C08121880200E
:10176000C0008446624406E0108802320870000A15
:1017700048700231013C002CF6D1DB0701D51388FB
:101780000B7010BD70B553043CD504685023E35A68
:101790000D78EE009B191B19384CA44663441C8835
:1017A000A405A40D8B69A34222D31B1B8B618B69FB
:1017B000002B0CD10368AD005D192B88304E3340EF
:1017C0008026B6015E402F4B33439BB22B805206DE
:1017D0000AD502680B789B00D21815882A4B1D4049
:1017E0002A4B2B439BB21380002C04D1200070BDE8
:1017F00000238B61DBE700680A8949692300FFF752
:10180000ABFFF3E704685023E35A0D78EE009B1911
:101810001B191F4CA44663441C88A405A40D8B69A6
:10182000A34227D31B1B8B618B69002B0CD1036850
:10183000AD005D192B88124E33408026B6015E4004
:10184000104B33439BB22B8052060AD402680B78AC
:101850009B00D21815880C4B1D400C4B2B439BB2A0
:101860001380002CC2D000684A8949692300FFF721
:1018700073FFBBE700238B61D6E7C046020400007C
:101880008FBFFFFF8080FFFF8F8FFFFFC080FFFFB4
:101890000604000070B5041E58D02D4BC35C002B0D
:1018A00007D02B4B0322E2542068FFF7B9F800223F
:1018B00017E0A4239B000022C254FEF779FFF0E753
:1018C00093009B18DB00E318012159741A7400215E
:1018D000D97419625962013293009B18DB001951C7
:1018E000D2B220799042EBD8002119E08A00531837
:1018F000DB00E3181E005236FF3600253570013E2E
:101900003170033635700D3635606533FF331D6039
:101910005218D200A2186932FF3215600131C9B2E3
:101920008842E3D820686168A268FFF783F8002343
:101930002373074B0122E254A37A012B01D000202C
:1019400070BD200000F0F4FE0020F9E70120F7E769
:101950009102000070B50400A4239B00C35C012B1E
:101960000DD0A425AD00012343550068FFF74EF8C4
:101970002068FFF735FB00236355002070BD02206F
:10198000FCE7000070B505000C001600530600D4FB
:10199000EEE002685023D35A0978C8001B189B1840
:1019A000AB4A944663441A889205920DA369934208
:1019B00040D99B1AA361A369002B59D16378002BEE
:1019C0003BD12B6850229A5A9B18C318A04A9446C0
:1019D00063441A889205920D1A801A889D490A4319
:1019E00092B21A802B686278002A33D150329A5A08
:1019F0009A182378DB009B18974A944663441A8808
:101A00009205920D1A801A8892490A4392B21A805E
:101A100021782800FEF706FF760439D52A68237856
:101A20009B00D21811888D4B19408D4B0B439BB2F4
:101A300013802DE00023A361BDE7012BD2D12B68D9
:101A400050229A5A9B18C018814B9C466044002330
:101A50000380C7E7012ADBD14F329A5A9B182278BC
:101A6000D200D3187C4A9446634400221A80CFE700
:101A7000760409D52B68890059180888774B1840D7
:101A8000774B03439BB20B802423E35C012B0FD0E5
:101A9000296823789B00C9180B88724A13403022AA
:101AA00053409BB2704A13439BB20B80002070BD21
:101AB00063699B186361E369D318E361216A236951
:101AC00099421AD3C91A21626278002A3AD12A6847
:101AD0005021515A51182278D20052185C498C4634
:101AE000624411888905890D1180002B11D111885C
:101AF0005848014389B2118026E0002903D12423EC
:101B0000E1541300E0E700232422A35423620B00D6
:101B1000DAE73E2B09D85908D80700D501311088DB
:101B2000890289B2014311800EE05909D80600D11B
:101B300001391088890289B208434649014389B2B4
:101B4000118001E0012A06D028689BB222896169D0
:101B5000FFF754FA9CE72A685021515A511822780D
:101B6000D20052183A498C46624499B21180EBE790
:101B700002685023D35A0978C8001B189B18364AAC
:101B8000944663441A889205920DA369934241D307
:101B90009B1AA361A369002B68D16378002B3CD109
:101BA0002B6850229A5A9B181B18294A9446634462
:101BB0001A889205920D1A801A8826490A4392B211
:101BC0001A802B686278002A34D150329A5A9B18B6
:101BD0002278D2009B18204A944663441A889205C2
:101BE000920D1A801A881B490A4392B21A802178F2
:101BF0002800FEF717FE760400D549E72A68237807
:101C00009B00D2181188154B1940154B0B439BB202
:101C100013803DE70023A361BCE7012BD1D12B68E2
:101C200050229A5A9B181B18094A94466344002272
:101C30001A80C6E7012ADAD14F329A5A9B182278C5
:101C4000D2009B18044A9446634400221A80CEE7CF
:101C5000020400000080FFFF060400008F8FFFFFDA
:101C600080C0FFFFBF8FFFFF8080FFFF760409D495
:101C70002B68890059180888344B1840344B0343AB
:101C80009BB20B802423E35C012B00D000E7636947
:101C90009B186361E369D318E361216A2369994260
:101CA0001AD3C91A21622A686178002939D15031C2
:101CB000515A52182178C900521826498C4662445C
:101CC00011888905890D1180002B11D111882248B6
:101CD000014389B2118026E0002903D12423E15475
:101CE0001300E0E7002323622422A3540B00DAE769
:101CF0003E2B09D85908D80700D501311088890230
:101D000089B2014311800EE05909D80600D101398A
:101D10001088890289B208430F49014389B21180B2
:101D200001E0012906D028689BB262896169FFF74A
:101D300065F9ADE64F31515A52182178C900521851
:101D400004498C46624499B21180ECE78F8FFFFF03
:101D500080C0FFFF060400000080FFFFF8B5CE46FC
:101D6000474680B5040020684423C35A1BB2002BA9
:101D700000DB98E24423C35A99B20F221D0015409C
:101D8000134200D0CBE0C9065DD503889AB21B058B
:101D900000D587E012B2002AE5DA0388D64A13405C
:101DA000802213439BB2038020685023C35AA82289
:101DB0005200A25CD2009B181B18D04A9446634480
:101DC0001B889B059B0D22005132FF32D361002BF3
:101DD0000ED0516900290BD01500D288FFF7BCFC4A
:101DE0006B69EA699B186B6100212000FEF70BFD0F
:101DF0002268138899B21B05B5D4C0239B011940F2
:101E00009942B0D05023D35AD218BC4B9C4662445E
:101E100013889B059B0D138023005133FF331B69EF
:101E2000002B63D11388B6490B439BB21380216802
:101E30000B88B44A1340C02292015A40B24B13435C
:101E40009BB20B808FE70288B04B1A40AC4B134318
:101E50009BB2038021685023CB5A227CD2009B186E
:101E60005B18AB4A944663441B889B059B0DE36259
:101E7000626AD318636200212000FEF7D3FC237B43
:101E8000002B00D16FE7A36A002B00D06BE7237B08
:101E90002168802252421343DBB2CC328B520023A2
:101EA000237360E75023C35AA8225200A25CD200D9
:101EB0009B181B18914A944663441B889B059B0DF5
:101EC00022005132FF32D361A62189006118D288E5
:101ED000FFF742FC2268138887490B4080210B439F
:101EE0009BB213802000FEF783FC3CE73E2B09D811
:101EF0005908DB0700D501311388890289B20B43E9
:101F0000138094E75909DB0600D10139138889024F
:101F100089B219437A4B0B439BB2138087E7AE001B
:101F2000801903889FB21BB2002B46DB3B0600D40E
:101F300019E7AB005919C9001031611820688019E0
:101F40000688724A16406E4A324392B202805B198A
:101F5000DB00E318DB7C012B00D109E1FB0500D598
:101F60009CE120685023C35AAA005219D200A2183B
:101F7000167CF2009B181B18654A944663441B8824
:101F80009B059B0D6F1CBA00D219D20012599A42C0
:101F900000D867E1BC46BF006744FF00D21A3A513F
:101FA0006F1CBA00D219D2001259002A00D060E189
:101FB00031002000FEF736FCD5E603884E4A134078
:101FC000802213439BB203807219D2005132FF3238
:101FD0009046A0447319DB00E3185D33FF331B7890
:101FE000002B4BD120685033C25A7319DB00E31821
:101FF0005133FF331B78DB00D3181B183F4A94463C
:1020000063441B889B059A0D9146002B28D1AA009A
:102010005219D200A21810006D30FF3003684946F3
:102020004B440360083803684B4403606932FF3255
:102030001368002B09D0AB005B19DB00E318613398
:10204000FF331B68994200D38DE0AB005B19DB00C6
:10205000E3185133FF3319782000FEF7D4FB65E70E
:102060007319DB00E3181A005732FF321288653308
:10207000FF3319684B46FFF76FFBC8E7AB005B19EE
:10208000DB00E3185433FF331B78022B46D0216862
:10209000AB005B19DB00E3185133FF331A78920071
:1020A000891808881B4A10401B4A024392B20A80D2
:1020B00020681A789300C3181B885B0435D5502319
:1020C000C35AD2009B181B18114A944663441B88BC
:1020D0009B059A0D9146002B99D0AB005B19DB0054
:1020E000E3181A005932FF3212886533FF3319683A
:1020F0004B46FFF731FB8AE78F0F00000604000014
:102100000080FFFF8FBFFFFF8080FFFF0F8FFFFF6B
:10211000020400008F8FFFFFC080FFFF3A0041469E
:102120002000FFF72FFB814671E75023C35AD200EE
:102130009B181B185E4A944663441B889B059A0DA6
:102140009146002B00D162E7AB005B19DB00E3187E
:102150001A005B32FF3212886533FF3319684B4631
:10216000FFF7FAFA53E720684146FEF75BFFDDE62A
:102170006A1C93009B18DB0000221A51AB005B190C
:10218000DB00E3181B7F002B1FD07F0639D5AB0087
:102190005B19DB00E3185B7C002B1FD123685032F6
:1021A0009A5A9A18AB005B19DB00E3181B7CDB0022
:1021B0009B18404A944663441A889205920D1A80EF
:1021C0001A883D490A4392B21A80AB005B19DB00C2
:1021D000E318197C2000FEF725FBC4E5012BF4D1A0
:1021E000236850229A5A9A18AB005B19DB00E31857
:1021F0001B7CDB009B182F4A9446634400221A8004
:10220000E3E72268AB005B19DB00E3185B7C002B83
:1022100016D15033D35AD218AB005B19DB00E31848
:102220001B7CDB009B18224A944663441A88920563
:10223000920D1A801A8820490A4392B21A80C4E784
:10224000012BC2D14F33D35AD218AB005B19DB003C
:10225000E3181B7CDB009B18154A9446634400225C
:102260001A80B2E76F1CBA00D219D20000271751AA
:1022700096E6AA005219D200A218566AF6185662BB
:102280000135AA005619F600A61976685219D2002F
:10229000A2189B195360FEF7C5FE64E53A002000C2
:1022A000FFF770FB5FE50020C0BCB946B046F8BD43
:1022B00006040000020400000080FFFF70B5040067
:1022C000A4239B00C35C012B0BD0A425AD000123EC
:1022D000435501730068FEF77BFE00236355002021
:1022E00070BD0220FCE7000070B504000068FEF736
:1022F00081FE030418D443051AD4430426D483046E
:102300002BD4C30430D4030551D4030600D565E0B3
:10231000830500D590E0C0051ED5216844228B5A64
:102320004A4803408B5217E02000FFF717FD13E0E7
:10233000216844228B5A464803408B522000FEF706
:1023400085FA00212000FFF7B9FF05E0216844224B
:102350008B5A404803408B5270BD216844228B5AEF
:102360003D4803408B52F7E721684023CA5A0420B6
:102370008243CA522168CA5A04308243CA52B223E5
:102380009B00E35C012B09D02000FEF783FA216853
:1023900044228B5A314803408B52DDE7B2239B0025
:1023A0000022E2540021200000F0D7F9ECE7216878
:1023B00040228B5A082003439BB28B522068442151
:1023C000435A274D2B40435221688B5A0420034324
:1023D0009BB28B522000FEF74BFABDE721684422E6
:1023E0008B5A802083438B52B2239B00E35C002BEB
:1023F0001ED12168043A8B5A042003439BB28B52AE
:1024000021688B5A082003439BB28B52B2239B0056
:102410003F3AE25422685423D25A9208183B1340A0
:10242000B3229200A3500121200000F096F993E717
:102430002000FEF71DFA8FE7216844228B5A0948D5
:1024400003408B522000FEF7FAF985E7FFFEFFFFFD
:10245000FFFBFFFFFFBFFFFFFFDFFFFFFFEFFFFF00
:10246000FFF7FFFFFFFDFFFF70B504000D0049B24D
:10247000002925DB07262E40B0008119C900513103
:10248000FF3161188019C00020185230FF3000263B
:1024900006700720284008700A61CB70022B1CD000
:1024A000A4239B00E35C012B1AD0A425AD000123DB
:1024B00063552068FEF7CEFA00236355002070BDF7
:1024C00007262E40B0008119C9001031611880190B
:1024D000C000201801264674DBE700230B71DFE7FC
:1024E0000220ECE770B504000A004BB2002B21DBA0
:1024F0000720084083001918C9005131FF316118C5
:102500001B18DB00E3185233FF3300201870072339
:1025100013400B70A4239B00E35C012B17D0A42570
:10252000AD00012363552068FEF726FC00236355A8
:10253000002070BD0720084083001918C900103121
:1025400061181B18DB00E31801205874DFE7022034
:10255000EFE7F8B507260E40B400A119C9005131C4
:10256000FF314118A519ED0045192F006537FF37D8
:102570003A602A006932FF3213600432002313608C
:102580005235FF352B70A419E40004195134FF347F
:1025900026700068FEF746FD0020F8BDF0B5D6466F
:1025A0004F464646C0B5994607250D40AC00611917
:1025B000C90010318A4682446619F6008619726293
:1025C0006F1CBA00D119C9000B5034218846B044A1
:1025D00033398C46414663460B704B463363D21900
:1025E000D200821800235360634673743574006808
:1025F0005146FEF717FD0020E0BCBA46B146A8469A
:10260000F0BD70B504000B0007220A400179914229
:102610002DD359B200291FDB9800C118C9005131D0
:10262000FF316118C018C00020185230FF3000235D
:10263000037001238B700A70A4239B00E35C012BC1
:1026400017D0A425AD00012363552068FEF74CFC8C
:1026500000236355002070BD93009918C900103104
:1026600041189B18DB00C31801205874E1E70120D2
:10267000F1E70220EFE770B504000B0001790F22AB
:102680001A40914233D35AB2002A23DB0720184064
:1026900082001118C9005131FF3161181218D2009F
:1026A000A2185232FF320020107000228A700732C6
:1026B00013400B70A4239B00E35C012B19D0A425CD
:1026C000AD00012363552068FEF734FC00236355F9
:1026D000002070BD0720184082001118C900103179
:1026E00061181218D200A21801205074DDE70120F1
:1026F000EFE70220EDE710B50C060CD507240C40DF
:10270000A1000919C90010314018002A0AD102732A
:10271000C380002010BD8C006118C9005131FF3109
:102720004018F2E70122027303811B0C4381F0E79A
:102730000168B4239B000122C250083B0022C2540E
:1027400054328B5A012003439BB28B528B5A022086
:1027500003439BB28B5200207047704770B582B024
:10276000041E00D17FE20368DB072BD5B34B5A6808
:102770000C231340042B1DD0B04B5A680C2313407C
:10278000082B0ED06368012B41D0002B56D1AB4BE8
:102790001A68AB490A401A601A68AA490A401A60C6
:1027A0003BE0A64B5B68C0225202134080225202DB
:1027B0009342E7D1A14B1B689B0303D56368002BB1
:1027C00000D153E223689B0777D59C4B5B680C22B2
:1027D0001A4262D0994B5A680C231340082B53D0ED
:1027E000E368002B00D18AE0944A136801210B436F
:1027F000136000F021FC0500904B1B689B0775D40B
:1028000000F01AFC401B0228F6D903202CE28B4A68
:10281000116880235B020B4313606368002B25D093
:1028200000F00AFC0500854B1B689B03CAD400F02E
:1028300003FC401B6428F6D9032015E2052B09D0C0
:102840007E4B1A687E490A401A601A687D490A4020
:102850001A60E2E7794B19688022D2020A431A60B3
:102860001968802252020A431A60D6E700F0E4FB9E
:102870000500724B1B689B03A4D500F0DDFB401BD9
:102880006428F6D90320EFE16C4B5B68C02252024A
:102890001340802212029342A2D1684B1B689B070F
:1028A00003D5E368012B00D0E2E164490B68F8220C
:1028B00093432269D20013430B6023681B0744D55E
:1028C000E369002B2ED05D4A536A01210B4353620A
:1028D00000F0B2FB0500594B5B6A9B0735D400F052
:1028E000ABFB401B0228F6D90320BDE153490B681E
:1028F000F82293432269D20013430B60DDE74F4A6D
:10290000136801218B43136000F096FB05004B4BCD
:102910001B689B07D1D500F08FFB401B0228F6D91E
:102920000320A1E1454A536A01218B43536200F021
:1029300083FB0500414B5B6A9B0706D500F07CFBDF
:10294000401B0228F6D903208EE123685B0700D4E0
:1029500080E03A4BDB69DB001DD4384BDA6980211B
:1029600049050A43DA61DB690B400193019B0125AC
:10297000354B1B68DB0510D5A368012B21D0002B3C
:1029800036D12E4B1A6A01218A431A621A6A033120
:102990008A431A621AE00025EAE72B4A116880236D
:1029A0005B000B43136000F047FB0600264B1B68DF
:1029B000DB05E1D400F040FB801B6428F6D903203E
:1029C00052E11E4A136A01210B431362A368002BD4
:1029D00024D000F031FB0600184B1B6A9B0737D44C
:1029E00000F02AFB801B194B9842F5D903203BE1EC
:1029F000052B09D0114B1A6A01218A431A621A6AFF
:102A000003318A431A62E1E70C4B1A6A04210A4334
:102A10001A621A6A03390A431A62D7E700F00CFBFC
:102A20000600064B1B6A9B0712D500F005FB801BB6
:102A3000064B9842F5D9032016E1C046001002402B
:102A4000FFFFFEFFFFFFFBFF007000408813000048
:102A5000012D39D02368DB0610D56369012B39D0ED
:102A6000053357D1894A536B04218B435363536B0E
:102A7000F4318B43A169C9000B43536323689B0660
:102A80006ED5824B5A680C2313400C2B60D07F4BC1
:102A90005A680C231340082B53D0236A002B7ED096
:102AA0007A4A516B80235B020B43536300F0C4FAF4
:102AB0000500764B5B6B9B0352D400F0BDFA401BC4
:102AC0000228F6D90320CFE0704AD36970490B4041
:102AD000D361BFE76D4B5A6B04210A435A635A6BAB
:102AE00003390A435A6300F0A7FA0500674B5B6B92
:102AF0009B0706D400F0A0FA401B0228F6D9032059
:102B0000B2E062494B6BF8229343A269D2001343AF
:102B10004B63B3E75D4B5A6B04210A435A635A6B0C
:102B200003398A435A6300F087FA0500574B5B6B01
:102B30009B07A3D500F080FA401B0228F6D903209A
:102B400092E0524B5B68C022520213409342A4D1E0
:102B50004E4B5B6B9B0303D5236A012B00D089E0AE
:102B6000636A002B00D187E0484A51680C220A4072
:102B7000082A60D0022B25D0444A136845490B40EF
:102B8000136000F059FA0400404B1B689B0150D5BC
:102B900000F052FA001B0228F6D9032064E03B4AF9
:102BA000536B3D490B40536300F046FA0500374B29
:102BB0005B6B9B03D4D500F03FFA401B0228F6D98B
:102BC000032051E0314A136832490B40136000F092
:102BD00033FA05002D4B1B689B0106D500F02CFA3B
:102BE000401B0228F6D903203EE0284BDA6A0F2169
:102BF0008A43216B0A43DA625A6828490A40E16A2B
:102C0000A06A01430A435A601968802252040A43A9
:102C10001A6000F011FA04001C4B1B689B0106D4DB
:102C200000F00AFA001B0228F6D903201CE000205D
:102C30001AE0002018E0012B20D0144B5A68D86A03
:102C4000C0235B021340A16A8B4219D10F230340BA
:102C5000216B8B4216D1F0239B031A40E36A9A4200
:102C600012D1002000E0012002B070BD0120FBE77E
:102C70000120F9E70120F7E70020F5E70120F3E75D
:102C80000120F1E70120EFE70120EDE7001002400D
:102C9000FFFFFFEFFFFFFFFEFFFFFEFFFF7FC2FF13
:102CA00010B51B4B5A680C231340082B06D00C2B75
:102CB00029D0042B29D1FA20C00325E0910C0F2341
:102CC00019401448445C1249C96A0B401249C95C56
:102CD000C0235B021A4080235B029A4208D0C023C3
:102CE0005B029A420AD00D48FDF7EAF960430BE017
:102CF000FA20C003FDF7E4F9604305E00848FDF75A
:102D0000DFF9604300E0064810BD0448FCE7C04618
:102D100000100240AC4B00089C4B000800127A00E7
:102D2000006CDC0270B504000D00002800D186E0C4
:102D3000474B1A68012313408B420AD244490B685F
:102D4000012293432B430B600B681A40AA4200D028
:102D500077E023689A070ED55B0705D53D4A516891
:102D6000E023DB000B4353603A4A5368F0218B4366
:102D7000A1680B4353602368DB0735D56368012BDB
:102D800009D0022B24D0032B28D0324A1268920794
:102D900005D4012052E02F4A1268920353D52D49E1
:102DA0004A680320824313434B6000F045F9060054
:102DB000284B5B680C221A4063689B009A4213D030
:102DC00000F03AF9801B244B9842F1D9032035E0FA
:102DD000204A12689201E2D401202FE01D4A526B72
:102DE0009203DCD4012029E0194B1A680123134017
:102DF000AB4209D916490B68012293432B430B6060
:102E00000B681A40AA4220D123685B0706D5114AF5
:102E1000536812490B40E1680B435360FFF740FFD2
:102E20000C4B5A6812090F2313400D4AD35CD8404B
:102E30000C4B1860032000F0BBF8002070BD01208F
:102E4000FCE70120FAE70120F8E70120F6E7C04699
:102E5000002002400010024088130000FFF8FFFF2E
:102E6000BC4B00085800002070B582B00400036815
:102E7000DB0339D5484BDB69DB0060D4464BDA69AC
:102E8000802149050A43DA61DB690B400193019B0C
:102E90000125424B1B68DB0553D53F4B1A6AC02303
:102EA0009B00110019401A4215D06368C02292009D
:102EB00013408B420FD0384B1A6A394911401E6AB1
:102EC0008020400230431862186A364E3040186243
:102ED0001962D20749D4304A136A31490B406168FC
:102EE0000B431362012D4FD02368DB0706D52A4A16
:102EF000136B03218B43A1680B43136323689B0669
:102F000006D5254A136B10218B43E1680B431363ED
:102F100023689B0306D5204A136B80218B4361698C
:102F20000B43136323685B0533D51B4A136B4021A6
:102F30008B4321690B431363002002B070BD002551
:102F4000A7E7164A116880235B000B43136000F06B
:102F500073F80600114B1B68DB059ED400F06CF87B
:102F6000801B6428F6D90320E7E700F065F8060027
:102F7000094B1B6A9B07AED400F05EF8801B0A4B1E
:102F80009842F5D90320D8E7D36908490B40D361AB
:102F9000AAE70020D1E7C0460010024000700040C0
:102FA000FFFCFFFFFFFFFEFF88130000FFFFFFEFA6
:102FB00010B504000F4B1978FA208000FDF780F857
:102FC00001000D4B1868FDF77BF800F093F900281D
:102FD0000DD1032C01D901200AE00130002221008B
:102FE000404200F077F9054B1C60002000E0012012
:102FF00010BDC046500000205800002054000020A2
:1030000010B5064A136810210B4313600320FFF725
:10301000CFFFFDF787FA002010BDC0460020024018
:10302000034A1168034B1B785B1813607047C04656
:10303000440B002050000020014B18687047C04628
:10304000440B002070B50400FFF7F6FF0500631C79
:1030500002D0044B1B78E418FFF7EEFF401BA042A0
:10306000FAD370BD50000020F0B583B0002356E0C5
:1030700086685F000324BC40A643CC68BC40344350
:103080008460446894434E683609012232409A4075
:103090002243426053E0DE080836B6003758053256
:1030A0001A4092000F249440A7430C6994402200D8
:1030B0003A43325056E0022600E00026A640340093
:1030C0003C4302329200424E9451424A9768EA438E
:1030D0003E00AE434C68E40201D53E002E433D4C19
:1030E000A660E7683E0016404C68A40201D53E0089
:1030F0002E43384CE66067683E0016404C68A403D7
:1031000001D53E002E43334C6660266832404C6841
:10311000E40301D52A0032432E4C226001330C68AF
:103120002200DA4051D001229A4025001540144275
:10313000F4D04E6803243440013C012C98D94C68EB
:1031400003222240032A08D0C4685E000322B24052
:1031500094438A68B2402243C2604C6803222240F2
:10316000022A98D004685E0003221700B740BC43CF
:103170004F683A40B240224302604C68C02292023B
:103180001442CBD0144CA66901221643A661A4694F
:1031900022400192019A9A08941CA4000C4EA7594F
:1031A00003241C40A4000F26A640B7439026F60532
:1031B000B04282D0094EB04205D0094EB04200D193
:1031C00079E705267AE7012678E703B0F0BDC04627
:1031D00000000140000401400010024000040048CB
:1031E00000080048002A01D0816170478162FCE735
:1031F00010B52123C35C022B03D004238363012079
:1032000010BD026813680E218B43136001680A68C1
:1032100001239A430A60016CC26B1C008C4054600D
:10322000212283541F330022C254436B002B02D04F
:1032300098470020E4E70020E2E7000070B500288E
:1032400011DB8308134DC0339B005C5903221040EF
:10325000C000FC3216008640B44389010A40824017
:1032600022435A5170BD0F230340083B9B0806338D
:103270009B00094A944663445C6803221040C000E6
:10328000FC3215008540AC4389010A40824022434C
:103290005A60E7E700E100E000ED00E0013880233C
:1032A0005B0498420FD2094A50600948036A1B0226
:1032B0001B0AC02109060B430362002393600733F6
:1032C0001360002070470120FCE7C04610E000E0DA
:1032D00000ED00E010B5FFF7B1FF10BD002805DBE1
:1032E0001F22024001239340014A13607047C046E9
:1032F00000E100E010B5FFF7D1FF10BDF0B5D646F4
:103300004F464646C0B582B006000D0090461F00ED
:10331000FFF792FE0A9B181A8146B944FFF78CFE0C
:1033200082462C4B1B685B011B0D4A46534301939D
:1033300033689C682C40641B63425C41444542D026
:103340007B1CF5D0FFF778FE5346C01A484508D2DB
:10335000019A002A00D04A46019B013B0193914605
:10336000E6E732685368E0218B435360726882233A
:103370005B009A420CD0B26A80239B019A4216D01D
:103380005D230122F254013B0022F25403201BE092
:10339000B36880221202934203D08022D20093426B
:1033A000E9D13268136840218B431360E3E7326848
:1033B000136809490B4013603268116880239B0130
:1033C0000B431360DCE7002002B0E0BCBA46B14614
:1033D000A846F0BD58000020FFDFFFFFF0B5DE4635
:1033E00057464E464546E0B583B007000D0016002F
:1033F00098466B460022DA70FFF71EFE0C9B181AE7
:1034000040448146FFF718FE82463B689B46344B9A
:103410001B689A00D218D3009B1A1B0D4A465343CF
:10342000019302E04346013311D13B689C682C4074
:10343000B4424DD0C023DB009D42F3D1002EF1D128
:103440005B461B7BDBB26A46D370D378EAE7FFF7B3
:10345000F3FD5346C01A484508D2019A002A00D00D
:103460004A46019B013B01939146DEE73A68536867
:10347000E0218B4353607A6882235B009A420CD030
:10348000BA6A80239B019A4216D05D230122FA5426
:10349000013B0022FA5403201BE0BB688022120289
:1034A000934203D08022D2009342E9D13A68136854
:1034B00040218B431360E3E73A68136809490B40E6
:1034C00013603A68116880239B010B431360DCE7AB
:1034D000002003B0F0BCBB46B246A946A046F0BDF2
:1034E00058000020FFDFFFFF70B582B004000D0020
:1034F0001600C02100922B0000224901FFF76EFF49
:10350000002818D100962B00002280212000FFF710
:10351000F5FE002816D1C02100962B000022C9001C
:103520002000FFF75BFF00280AD0236E2022134300
:103530002366032004E0236E202213432366032026
:1035400002B070BD236E2022134323660320F7E7E9
:1035500070B5041E00D178E0436A002B07D14268A1
:103560000533FF339A4205D00023C36102E00023F4
:10357000036143610023A3625D33E35C002B5AD0F7
:103580005D230222E2542268136840218B431360BA
:10359000E368E022D200934254D90022F0210901CD
:1035A0008B4205D0E021C9008B4201D00023A362E9
:1035B0006368822149000B40A16884200002014019
:1035C0000B432069022101400B436069012108403F
:1035D0000343A0698025AD0028400343E5693820F6
:1035E00028400343256A802028400343A06A8025A1
:1035F000AD012840256803432B60608B0423034002
:10360000656A102028400343656B08202840034367
:10361000E068F0252D0128400343206813434360F0
:103620002268D3690A480340D361002323665D33CF
:10363000E154002070BD5C330022E2542000FCF70E
:1036400089FF9DE780225201A8E70120F2E7C046EA
:10365000FFF7FFFF10B5002947D0002A47D05D23B0
:10366000C35C012B45D15B33C35C012B43D05C238E
:103670000124C45401330234C4540023036681631B
:103680008287C28703644422835202328352C36416
:10369000C268E023DB009A4218D9184B03658268A0
:1036A00080231B029A4214D0026813685B0603D47D
:1036B000136840210B4313605C230022C25402684C
:1036C0005368A0210B435360002010BD0C4B0365D1
:1036D000E5E70268136840218B43136002681168B4
:1036E0008023DB010B431360DEE70120EDE70120BF
:1036F000EBE70220E9E70220E7E7C0468B37000846
:10370000653700087047704710B582B00400FFF7B6
:1037100093FC020021684B68A02083434B60642126
:103720002000FFF7E1FE002803D0236E2022134380
:103730002366A368002B06D101932368DA680192FF
:103740009B680193019B5D230122E254236E002BB1
:1037500004D02000FFF7D7FF02B010BD2000FFF714
:10376000D1FFF9E710B5826B036812781A73836B87
:1037700001338363C38F013B9BB2C387C38F002B8D
:1037800000D010BDFFF7C0FFFBE710B5826B0368E8
:103790001288DA60836B02338363C38F013B9BB271
:1037A000C387C38F002B00D010BDFFF7ADFFFBE731
:1037B000F0B585B004000268556893689909012046
:1037C00006000E40084203D1D90701D569066AD424
:1037D000990701D529066AD45909012007000F402D
:1037E000084203D1002E01D1D90563D5A90661D5C0
:1037F000002E0ED05D21615C03295DD0216E042076
:103800000143216600210091D168009191680091E7
:103810000099002F0CD0216E012001432166002168
:1038200002919168029111683F3081431160029AC0
:10383000DB0509D5236E0822134323660023039377
:1038400023689B680393039B236E002B32D022686E
:103850005368E0218B4353605D230122E254AD079E
:1038600032D022685368DD398B435360A36D002B3F
:103870000AD0174A5A63A06DFFF7BAFC002803D09C
:10388000236E402213432366636D002B12D0104A2F
:103890005A63606DFFF7ACFC00280BD0236E40220A
:1038A0001343236606E0E36C2000984702E0236D93
:1038B0002000984705B0F0BD00230193D368019321
:1038C00093680193019BF5E72000FFF71CFFF1E7E8
:1038D000D538000810B5406A002346228352C387BA
:1038E000FFF711FF10BD30B5036A046A0125AC4330
:1038F00004628469EF35AC43120122430A24A343D6
:103900000B438261036230BD30B5036A046A10253F
:10391000AC4304628469054D2C4012032243A02469
:10392000A343090119438261016230BDFF0FFFFF0C
:103930008368702293430B43693A13438360704753
:10394000704770477047704770B504000368DE68C1
:103950001D69AA070ED5B2070CD5032252421A617F
:103960000123037703689B699B0751D0FFF7E9FFA9
:10397000002323776B0712D5730710D52368052220
:1039800052421A610223237723689A69C0239B005D
:103990001A4243D02000FFF7D4FF002323772B07E0
:1039A00010D533070ED52368092252421A61042329
:1039B00023772368DB699B0737D02000FFF7C1FF1F
:1039C00000232377EB0612D5F30610D523681122C6
:1039D00052421A61082323772368DA69C0239B00C7
:1039E0001A4229D02000FFF7ACFF00232377EB0712
:1039F00001D5F30727D42B0601D533062BD46B064C
:103A000001D573062FD4AD0601D5B60633D470BDEB
:103A1000FFF796FF2000FFF795FFA9E72000FFF7CB
:103A20008FFF2000FFF78EFFB7E72000FFF788FF2A
:103A30002000FFF787FFC3E72000FFF781FF20008A
:103A4000FFF780FFD1E72368022252421A6120006B
:103A5000FCF764FDCFE72368812252421A612000FF
:103A600000F051F9CBE72368412252421A6120004D
:103A7000FFF769FFC7E72368212252421A6120003D
:103A800000F040F9C3E700000368214A904206D0E5
:103A90008022D205904202D01E4A904203D1702269
:103AA00093434A6813431A4A90420FD08022D205AA
:103AB00090420BD0174A904208D0174A904205D046
:103AC000164A904202D0164A904203D1154A1A4033
:103AD000CB681343802293434A69134303608B6886
:103AE000C3620B6883620A4B984205D00B4B984225
:103AF00002D00B4B984201D10B6903630123436150
:103B00000269134203D003690122934303617047A2
:103B1000002C01400004004000200040004401400F
:103B200000480140FFFCFFFF70B5041E26D03D2376
:103B3000C35C002B1CD03D2502236355210001C925
:103B4000FFF7A2FF01234622A354083AA3540132EF
:103B5000A3540132A3540132A3540132A3540132BD
:103B6000A3540132A3540132A3546355002070BD05
:103B70003C330022C254FCF727FDDCE70120F6E7C6
:103B800030B58468034D2C401B0213430B43234381
:103B9000836030BDFF00FFFF10B504000B003C2226
:103BA000825C012A00D177E03C220121815401325C
:103BB0000131815401688A68384802408A60196876
:103BC00060294FD023D8402957D011D8202904D0BC
:103BD0000AD8002901D0102904D12068FFF7A8FED7
:103BE00000202AE0012028E03029F6D0012024E03E
:103BF00050290AD15968DA682068FFF774FE2068F6
:103C00005021FFF795FE002017E0012015E08022EB
:103C1000520191423CD080229201914214D07029ED
:103C200038D199685A68DB682068FFF7A9FF2268D5
:103C3000936877210B43936000203D230122E254D7
:103C4000013B0022E25410BD99685A68DB68206885
:103C5000FFF796FF226891688023DB010B43936096
:103C60000020EAE75968DA682068FFF74DFE20680F
:103C70006021FFF75DFE0020DFE75968DA68206801
:103C8000FFF731FE20684021FFF752FE0020D4E705
:103C90000020D2E70120D0E70220D4E78800FFFF10
:103CA00030B53C23C35C012B25D03C230122C254F8
:103CB00001330132C25403685C689D686E329443DC
:103CC0000A6822435A6003680C4A934206D0802255
:103CD000D205934202D00A4A934204D180229543EE
:103CE0004A682A439A603D230122C254013B0022C4
:103CF000C254002030BD0220FCE7C046002C014029
:103D00000004004070477047704710B5002816D077
:103D1000AD239B00C358002B03D0AD239B00002490
:103D2000C450002902D0AC239B00C150A7239B00A4
:103D30000121C1540270FCF7C3FD002010BD022018
:103D4000FCE7002904D0AD239B00C1500020704740
:103D50000220FCE710B5FCF7EFFD002010BD10B508
:103D6000AD239B00C358002B06D01B689847002842
:103D700000D110BD0220FCE70220FAE710B5AD2308
:103D80009B00C3585B689847002010BD70B50400C5
:103D9000AA239B00C518280000F064F9A5239B0006
:103DA0000122E250114BE25A163BE2501033E15C23
:103DB0001F230B40012B09D0022B0CD0002B0FD15D
:103DC0002900200000F028FB002070BD2900200001
:103DD00000F058FBF8E72900200000F086FBF3E72D
:103DE0007F2399432000FCF7C5FDEDE7AE020000FC
:103DF00070B505000C001100002C38D1A5239B00E4
:103E0000C358032B03D0052B28D020003DE002002F
:103E10005532FF32D368126993420DD99B1A55303F
:103E2000FF30C3609A4205D99AB2280000F0AAFC7C
:103E300020002AE092B2F8E7AD239B00C3581B692B
:103E4000002B04D0A7229200825C032A04D0280011
:103E500000F0A0FC200018E09847F8E7A5239B009D
:103E60000022C2500021FCF785FD20000DE0AD23AB
:103E70009B00C3589B69002B08D0A7229200825C4C
:103E8000032A05D121009847002070BD0220FCE7DD
:103E90000220FAE7F8B505000C001100002C5BD1F8
:103EA000A5239B00C358022B0ED0042B01D0002B5E
:103EB00003D180212800FCF75DFDA8239B00EB5C6B
:103EC000012B43D02000F8BD026A466AB24220D8D6
:103ED000C76931003800FCF72FF9002906D1BE422E
:103EE00004D8A6239B00EB589F421ED3AD239B0012
:103EF000EB58DB68002B04D0A7229200AA5C032AAF
:103F000021D080212800FCF735FD280000F04EFC70
:103F1000D3E7921B026292B200F01BFC0023002246
:103F200000212800FCF762FDC7E70022280000F00E
:103F300010FCA6239B000022EA5000230021280049
:103F4000FCF754FDB9E728009847DAE7A8239B005F
:103F50000022EA542000B6E7AD239B00C3585B69FA
:103F6000002B08D0A7229200825C032A05D12100F1
:103F700098470020A7E70220A5E70220A3E770B535
:103F80000400402300220021FCF7DFFC0125AC23C4
:103F90005B00E55040260C33E650253BFF3B0022FA
:103FA00080212000FCF7D1FCA5616662A7239B005D
:103FB000E5540023A5229200A35063601032A35061
:103FC000AE239B00E358002B06D0AD239B00E358A3
:103FD0005B68002120009847002070BD017400201C
:103FE00070470000A7239B00C15C034A8154042250
:103FF000C25400207047C0469D020000A7239B00CA
:10400000C35C042B01D000207047024BC25C013B13
:10401000C254F8E79D02000010B5A7239B00C35CC3
:10402000032B01D0002010BDAD239B00C358DB69DA
:10403000002BF7D09847F5E70300002002E001309D
:10404000C0B201331A78002AF9D1704710B54B88F5
:10405000012B00D010BDA9239B000122C25000F00B
:1040600099FBF7E70B7803704B7843708B78CA782D
:1040700012029B1843800B794A7912029B188380A5
:104080008B79CA7912029B18C380704710B504005F
:104090008021FCF76FFC00212000FCF76BFC10BDB9
:1040A00030B583B005000C006B460022DA804A88E8
:1040B000130A072B00D9B6E09B006549CB589F46F1
:1040C000AC239B00C3581B68007C6A46911D98472F
:1040D0006B4606331B88002B03D0E288002A00D0F1
:1040E000A6E0E388002B00D1AEE003B030BD037C36
:1040F000002B09D1AD239B00C3589B6A6A46901DD3
:10410000984702234370E3E7AD239B00C358DB6A63
:104110006A46901D984702234370D9E7D2B2052A18
:104120005DD892004B4B9B589F46AC239B00C358D5
:104130005B68002B04D0007C6A46911D9847C7E756
:104140002100FFF7A3FFD0E7AC239B00C3589B6877
:10415000002B04D0007C6A46911D9847B8E72100E7
:10416000FFF794FFC1E7AC239B00C358DB68002B2B
:1041700004D0007C6A46911D9847A9E72100FFF70B
:1041800085FFB2E7AC239B00C3581B69002B04D00A
:10419000007C6A46911D98479AE72100FFF776FF59
:1041A000A3E7AC239B00C3585B69002B04D0007CC1
:1041B0006A46911D98478BE72100FFF767FF94E758
:1041C000AC239B00C3589B69002B04D0007C6A463B
:1041D000911D98477CE72100FFF758FF85E72100F4
:1041E000FFF754FF81E7037C002B07D1AD239B0031
:1041F000C3585B6B6A46901D984769E72100FFF73B
:1042000045FF72E7037C002B09D1AD239B00C35807
:104210001B6B6A46901D98470723437058E721009F
:10422000FFF734FF61E721002800FFF72FFF5CE76D
:10423000191C934200D9111C8AB26B46D980010027
:10424000280000F078FA4CE7280000F0A3FA4CE7C9
:10425000CC4B0008EC4B000870B504008B88002B99
:1042600023D1CB88002B20D14B887F2B1DD87F25D5
:104270001D40A7239B00C35C032B0ED00D4BC554E0
:104280002900FCF7A1FB200000F084FA002D07D0E4
:10429000A7239B000222E2540AE0FFF7F7FE07E0A3
:1042A000A7239B000122E25402E02000FFF7EEFE6C
:1042B00070BDC0469E02000070B504000D008978F4
:1042C0002A4B197001290FD8A7239B00C35C022B2E
:1042D0000ED0032B23D02900FFF7D8FE234B1978EB
:1042E0002000FFF74BFD02E02900FFF7CFFE70BD75
:1042F000002911D04160A7239B000322C254FFF77D
:104300002EFD022803D0200000F044FAEFE7290038
:104310002000FFF7BBFEEAE700F03CFAE7E70029E0
:1043200011D0436899421ED0D9B2FFF727FD0F4B39
:10433000197861602000FFF712FD02280ED02000DE
:1043400000F028FAD3E7A7239B000222C254416061
:10435000FFF714FD200000F01DFAC8E72900200037
:10436000FFF794FEC3E700F015FAC0E7480B002002
:1043700010B5CB88012B0BD1A7239B00C35C022B6C
:1043800009D9032B11D1011D012200F0D4F901E05C
:10439000FFF77CFE10BD002B07D0002383600100D7
:1043A0000831012200F0C7F9F4E7FFF76FFEF1E7EB
:1043B00010B5A7239B00C35C013B022B14D8CB880C
:1043C000022B0ED10023C360A9239B00C358002BEE
:1043D00001D00223C36001000C31022200F0ABF9CE
:1043E00010BDFFF753FEFBE7FFF750FEF8E710B5EF
:1043F000A7239B00C35C013B022B0AD84B88012BEF
:1044000000D010BDA9239B000022C25000F0C2F9C9
:10441000F7E7FFF73BFEF4E710B50A786023134097
:10442000202B06D0402B04D0002B09D0FFF72EFE06
:1044300004E0AD239B00C3589B689847002010BD43
:104440004B78092B18D89B000D4AD3589F46FFF78D
:1044500027FEF3E7FFF700FFF0E7FFF72DFFEDE79B
:10446000FFF786FFEAE7FFF7A3FFE7E7FFF7EEFDB9
:10447000E4E7FFF7BCFFE1E7FFF708FEDEE7C04631
:10448000044C000870B505000C000A786023134046
:10449000202B07D0402B05D0002B03D0FFF7F6FDD3
:1044A000002070BDA7239B00EB5C013B022B17D8BB
:1044B0002379012B0FD8AD239B00EB589B6821007B
:1044C00028009847E388002BEAD10028E8D128008B
:1044D00000F060F9E4E721002800FFF7D7FDDFE7EF
:1044E00021002800FFF7D2FDDAE770B505008888C3
:1044F0000A790B7860241C40202C08D0402C06D070
:10450000002C0DD02800FFF7C1FD002406E0AD23EC
:104510009B00EB589B68280098470024200070BD42
:10452000202C0AD04E78012E3ED0032E0DD0002E26
:1045300064D02800FFF7AAFDF0E7AD239B00EB58FD
:104540009B68280098470400E8E7A7239B00EB5CE2
:10455000022B05D0032B14D02800FFF797FDDDE7D1
:10456000002A01D0802A03D12800FFF78FFDD5E76C
:1045700011002800FCF7FEF980212800FCF7FAF969
:10458000CCE74B88002B06D1002A04D0802A02D029
:10459000CB88002B03D0280000F0FCF8BEE7110008
:1045A0002800FCF7E7F9F6E7A7239B00EB5C022B5A
:1045B00005D0032B14D02800FFF768FDAEE7002AD2
:1045C00001D0802A03D12800FFF760FDA6E7110083
:1045D0002800FCF7CFF980212800FCF7CBF99DE7F4
:1045E0004B88002B9AD1530603D1280000F0D2F853
:1045F00094E711002800FCF7C6F9F6E7A7239B0013
:10460000EB5C022B06D0032B29D02800FFF73EFDE0
:10461000340083E7002A01D0802A12D1000615D485
:104620007F2313409900C91889005131FF3169185F
:10463000043100230B600222280000F07CF83400D3
:104640006CE72800FFF722FD340067E77F23134063
:104650009900C9188900103169180431E9E744B29A
:10466000000622D40F20104083001B189B00EB187B
:104670005933FF331B68002B25D0002C28DB7F2308
:1046800013409C00E418A4005134FF342C19043466
:10469000002A01D0802A24D1002323600222210095
:1046A000280000F048F8340038E70F20104083005D
:1046B0001B189B00EB189B69002BDED12800FFF72D
:1046C000E5FC34002AE72800FFF7E0FC340025E78A
:1046D0007F2313409C00E418A40010342C190434E8
:1046E000D6E711002800FCF757F9002802D0012373
:1046F0002360D3E700232360D0E770B504000D00EA
:104700001600002816D0FFF797FC013043009BB23B
:1047100033802B7003236B70013B08E001345A1C7B
:10472000D2B2E8540233DBB2AA180021117020780B
:104730000028F3D170BD10B51300A5229200022409
:104740008450C36103620A000021FCF746F900208F
:1047500010BD10B513000A000021FCF73EF900203F
:1047600010BD10B51300A522920003248450393ADD
:10477000FF3A8350043283500A000021FCF736F9D7
:10478000002010BD10B513000A000021FCF72EF91F
:10479000002010BD10B5A5239B000422C2500023A9
:1047A00000220021FCF719F9002010BD10B5A52347
:1047B0009B000522C250002300220021FCF716F9BD
:1047C000002010BD00207047002070470020704777
:1047D0002923038000487047A40100202923038077
:1047E0000048704778010020292303800048704763
:1047F0004C010020AE239B00C25850230021D1540D
:104800000020704710B5AE239B00C458E36C012B09
:1048100001D0002010BDAF239B00C358DB68617836
:10482000207898470023E364F3E700000A2303801D
:10483000004870473401002070B50400AE239B008F
:10484000C5580433C358DB686978287898474023F3
:104850002A0001212000FCF7C9F8002070BD0000EB
:1048600070B582B0AE239B00C5586B460022DA803B
:104870000B78603214001C401A422CD0202C00D03F
:1048800080E04B780B2B22D89B00414AD3589F469F
:104890008B782B64002478E0290040310122FFF757
:1048A0004AFF002471E04B881B0A6B6400246CE013
:1048B000290044310122FFF73EFF002465E0012377
:1048C000EB64CA882900FFF74CFF00245DE0FFF786
:1048D000DDFB022459E04E780A2E3CD00ED8002E83
:1048E00016D0062E4AD14B881B0A222B20D0212B12
:1048F00029D000210022FFF71EFF46E00B2E3DD1FC
:10490000A7239B00C35C032B34D18B78AB643CE0C2
:10491000A7239B00C35C032B03D0FFF7B7FB022444
:1049200033E002226B46991DFFF705FF34002CE0AF
:10493000CB881A1CC82B00D9C82292B2AF239B0087
:10494000C3581968D7E7CB881A1C092B00D909224C
:1049500092B21049CFE7A7239B00C35C032B03D07F
:10496000FFF794FB022410E0290048310122FFF7F1
:10497000E2FE0AE0FFF78AFB022406E0FFF786FB6F
:10498000022402E0FFF782FB0224200002B070BD87
:104990002C4C00084001002070B504008121FBF779
:1049A000E0FF0025E56201212000FBF7DAFFB623D6
:1049B0005B00E5504D33FF33E358002B0BD0AF23A2
:1049C0009B00E3589B689847AE25AD006059FCF703
:1049D0001BF800236351002070BD70B50400022352
:1049E00003228121FBF7B1FF0125E56202230322A7
:1049F00001212000FBF7A9FFB6235B00E5505420FE
:104A0000FBF7FEFF0500AE239B00E05000280FD00F
:104A100050230022C254AF239B00E3585B689847A1
:104A200040232A0001212000FBF7E0FF002070BD99
:104A30000120FCE7002904D0AF239B00C1500020D7
:104A400070470220FCE7000013488546FFF75CF939
:104A500012480168090E124A914205D111481249C3
:104A6000016012481249016012481349134A002399
:104A700002E0D458C4500433C4188C42F9D3104A0D
:104A8000104C002301E013600432A242FBD300F07B
:104A900025F8FBF75DFCFEE700180020040000008D
:104AA0001F0000001810024001000000000001403B
:104AB000000000000000002008020020644C0008F4
:104AC000080200204C0B0020FEE7030082189342EE
:104AD00000D1704719700133F9E7000070B5002666
:104AE0000C4C0D4D641BA410A64209D1002600F009
:104AF00019F80A4C0A4D641BA410A64205D170BDDA
:104B0000B300EB5898470136EEE7B300EB589847EF
:104B10000136F2E75C4C00085C4C0008604C000871
:104B20005C4C0008F8B5C046F8BC08BC9E4670470F
:0C4B3000F8B5C046F8BC08BC9E467047B3
:104B3C0053544D333220437573746F6D2048756D2B
:104B4C00616E20696E7465726661636500000000B9
:104B5C0053544D6963726F656C656374726F6E69E3
:104B6C0063730000437573746F6D20484944204390
:104B7C006F6E666967000000437573746F6D204833
:104B8C00494420496E7465726661636500000000DB
:104B9C000102030405060708090A0B0C0D0E0F1081
:104BAC0002030405060708090A0B0C0D0E0F101062
:104BBC0000000000000000000102030406070809C1
:104BCC0026420008C0400008EE4000081C410008C6
:104BDC002642000826420008E6410008044200086C
:104BEC002A41000848410008664100088441000839
:104BFC00A2410008C0410008664400087244000845
:104C0C00784400086C4400087844000854440008B8
:104C1C004E44000878440008604400085A440008D8
:104C2C00CE480008CE480008B04800089848000854
:104C3C00CE480008CE480008CE480008CE480008F0
:104C4C00CE480008BE480008A64800089048000856
:044C5C0079010008D2
:044C600051010008F6
:104C64001A03000000000000000000000000000023
:104C7400000000000000000000000000040309041C
:104C84001201000200000040830450570002010298
:104C940003010000610600086D06000825070008EE
:104CA400FD060008E9060008410700086907000836
:104CB400010000000400000000127A006C000020D3
:104CC400C5470008C9470008CD47000800C00000D8
:104CD40000000000000000000000000000000000D0
:104CE40000000000000000000000000000000000C0
:104CF40000000000000000000000000000000000B0
:104D0400000000000000000000000000000000009F
:104D1400000000000000000000000000000000008F
:104D2400000000000000000000000000000000007F
:104D3400000000000000000000000000000000006F
:104D4400000000000000000000000000000000005F
:104D5400000000000000000000000000000000004F
:104D6400000000000000000000000000000000003F
:104D7400000000000000000000000000000000002F
:104D8400000000000000000000000000000000001F
:104D9400000000000A0600020000004001000000BC
:104DA40009211101000122C80000000009022900A4
:104DB400010100C0320904000002030000000921BF
:104DC4001101000122C8000705810302000507053F
:104DD400010302000500000009022900010100C0CE
:104DE400320904000002030000000921110100013E
:104DF40022C800070581030200050705010302001C
:104E04000500000009022900010100C03209040064
:104E140000020300000009211101000122C800075B
:104E240005810302000507050103020005000000D7
:104E3400DB490008994900086148000800000000A7
:104E440005480008F547000839480008000000003C
:104E54000000000000000000DD470008D147000802
:084E6400E94700082D48000891
:0400000508004A495C
:00000001FF
