:020000040800F2
:1000000000180020E14E00088D0500088F0500084B
:1000100000000000000000000000000000000000E0
:100020000000000000000000000000009105000832
:10003000000000000000000093050008950500087E
:10004000614F0008614F0008614F0008614F0008D0
:10005000614F0008614F0008614F0008614F0008C0
:10006000614F0008614F0008614F0008614F0008B0
:10007000614F0008614F0008614F00089D050008AE
:10008000614F00080000000000000000614F000800
:1000900000000000614F0008614F0008614F000838
:1000A00000000000AD050008614F0008614F000826
:1000B000614F000800000000614F0008BD05000806
:1000C00003B47146490840004900095E49008E4466
:1000D00003BC7047002934D00123002210B48842A9
:1000E0002CD301242407A14204D2814202D2090167
:1000F0001B01F8E7E400A14204D2814202D2490088
:100100005B00F8E7884201D3401A1A434C08A0422A
:1001100002D3001B5C0822438C08A04202D3001BC0
:100120009C082243CC08A04202D3001BDC082243D7
:10013000002803D01B0901D00909E3E7100010BC17
:10014000704701B5002000F00BF802BD0029F8D07F
:1001500003B5FFF7C1FF0EBC4243891A1847C046DA
:100160007047C04610B5064C2378002B07D1054BCD
:10017000002B02D0044800E000BF0123237010BD13
:10018000DC01002000000000205F0008044B10B5D7
:10019000002B03D00349044800E000BF10BDC04657
:1001A00000000000E0010020205F000810B5437847
:1001B0008178C278043000F053F910BD30B589B0B1
:1001C00003AC14220021200004F0F6FF124B5A6900
:1001D000802189020A435A615A690A400192019AB0
:1001E0005A698021C9020A435A615B690B40029334
:1001F000029B0A4D00224021280003F01FF94023F2
:1002000003933F3B049300230593069321002800AA
:1002100002F0E4FF09B030BD0010024000040048C5
:1002200010B5096800290BD00378552B06D0772B21
:1002300006D10448022104F06BFC01E0FFF7B6FF91
:1002400010BDC0460000002072B6FEE710B5114890
:10025000114B036082235B00436000238360E02234
:10026000D200C26003614361802292008261E93A58
:10027000FF3AC261036243628362113AC26203635E
:100280000833436303F090FA002800D110BDFFF754
:10029000DBFFC046180300200030014000B587B0E6
:1002A0001022002102A804F087FF082200216846DE
:1002B00004F082FF14488023DB050360134B436086
:1002C00000238360124AC2600361836103F088FDEA
:1002D000002813D180235B0102930B4802A903F08D
:1002E000B7FD00280CD1694600230093019306480E
:1002F00003F032FE002805D107B000BDFFF7A4FFD0
:10030000FFF7A2FFFFF7A0FFD0020020E7030000E5
:10031000DC05000010B59EB011AC34220021200095
:1003200004F04AFF102200210DA804F045FF182216
:10033000002107A804F040FF1822002101A804F0C2
:100340003BFF22231193213B149319931022159202
:100350000E3A1A92802212021B92A02292031C9241
:100360001D93200002F090FA002831D10DA8072338
:100370000D93053B436000238360C360012102F0BD
:1003800061FD002826D107A880239B020793002344
:10039000436102F0F9FD00281ED1104BDA6980217B
:1003A00009050A43DA61DB690B400093009B01A851
:1003B000002301938022920542608360084BC36052
:1003C00022230361023B436102F082FE1EB010BD96
:1003D000FFF73AFFFFF738FFFFF736FF0010024044
:1003E0007FBB000070B502F0C5FEFFF793FFFFF77B
:1003F000E5FEFFF72BFF00F05DF9FFF74FFF01224D
:100400004021144803F01AF8134803F0C5FB0028F4
:1004100001D1002515E0FFF717FF14260F4B4A0006
:1004200052186C246C431219D6549B1800229A70EF
:100430005A700131232903D8002DEED00600EDE7D4
:100440000135012D01D80021F4E7FA20800002F0E7
:10045000B3FEFAE700040048D0020020F8010020B3
:10046000F0B5002509E06C245C434E007618A41911
:100470006419475D044E375501355400A418AC4249
:10048000F1D80020F0BDC04610060020F8B5CE46D9
:10049000474680B5002303E0364A0021D15401339A
:1004A000D92252009342F7D9334B1A686C23534335
:1004B000324A9C46944400239846073300242FE098
:1004C0002F4A00211170517001319170D17022E0DA
:1004D000013BDBB2013003280CD8264F3A5D284996
:1004E000095C99400A43D2B23A55002BF0D101344D
:1004F0000833EDE776080135EDB2072D0DD86246D9
:100500004146525C1642DBD11D4A002111705170E8
:1005100091700131D1700020DDE701229146C8447D
:1005200042466B2A02D800258026E6E711490023BF
:10053000D82252008B54B222FF328B5401328B549A
:10054000FE3A1048FF3203F0B1F90B4B1A68013242
:100550001A601B68022B04D00020C0BCB946B0460C
:10056000F8BD054B00221A6004480749D83204F050
:10057000A0FEF1E77C0300203405002038050020B0
:10058000300500201803002010060020FEE7FEE7DB
:100590007047704710B502F0FDFD10BD10B5024860
:1005A00003F02EFB10BDC046D002002010B502485B
:1005B00003F02AFA10BDC0461803002010B5024807
:1005C00001F01EFF10BDC046300C002010B5FFF733
:1005D0005DFF10BD82B00A4B9969012211439961F8
:1005E00099690A400092009ADA69802149050A4314
:1005F000DA61DB690B400193019B02B07047C04692
:100600000010024010B588B004001422002103A895
:1006100004F0D2FD2268164B9A4201D008B010BDFA
:10062000144B9A69802149010A439A619A690A40E8
:100630000192019A5A69802189020A435A615B69D1
:100640000B400293029B03A9A02303939E3B4B60A4
:100650000133CB609020C00502F0C0FD00220021D4
:10066000192002F063FF192002F064FFD6E7C046AC
:10067000003001400010024000B583B002688023C2
:10068000DB059A4201D003B000BD094AD1690123BC
:100690001943D161D26913400193019B00220021CB
:1006A0000F2002F043FF0F2002F044FFEBE7C046AB
:1006B0000010024070B586B001AC14220021200069
:1006C00004F07AFD8026760101960123029301331E
:1006D0000393013304939025ED052100280002F0D7
:1006E0007DFD00223100280002F0A8FE192002F052
:1006F00063FD01223100280002F0A0FE3100280035
:1007000002F02AFE12491348002203F05BFC002885
:1007100012D111490F4803F07FFC00280FD10F4977
:100720000C4804F085FB00280CD10A4803F08CFC2F
:1007300000280AD106B070BDFFF786FDE9E7FFF794
:1007400083FDECE7FFF780FDEFE7FFF77DFDF1E7C5
:1007500038000020E80600203C0100206000002056
:1007600012230B80004870472400002004230B80D4
:10077000004870472000002030B500230AE05D00EB
:1007800037344C5500015C0001340C1900252570EC
:100790000133DBB2934206D2040F092CEFD85D007F
:1007A00030344C55EEE730BD70B50B4B18680B4B31
:1007B0001D680B4B1B68C018002800D170BD094C88
:1007C00008222100FFF7D8FF210010310422280061
:1007D000FFF7D2FFF2E7C046ACF7FF1FB0F7FF1FED
:1007E000B4F7FF1F0600002010B51A230B80FFF797
:1007F000DBFF014810BDC0460400002010B50A0010
:10080000002805D10549064804F0F1F8034810BD59
:100810000249034804F0EBF8F8E7C046AC090020B1
:10082000385F000810B50A00034C0448210004F0AA
:10083000DEF8200010BDC046AC090020385F00087B
:1008400010B50A00002805D10549064804F0CFF884
:10085000034810BD0249034804F0C9F8F8E7C04650
:10086000AC090020445F000810B50A00002805D13B
:100870000549064804F0BBF8034810BD0249034887
:1008800004F0B5F8F8E7C046AC090020505F000856
:10089000022804D005D8002800D00220704701208B
:1008A000FCE70220FAE710B5FFF734FD10BD0000A9
:1008B00000B583B002680C4B9A4201D003B000BD72
:1008C0000A4BDA69802109040A43DA61DB690B40CB
:1008D0000193019B002200211F2002F027FE1F2010
:1008E00002F028FEEAE7C046005C0040001002402B
:1008F00010B50100B6239B00C058403B9C466144A4
:1009000003F0BEFB10BD10B50300B6229200805864
:100910008A005218D2009B186533FF331A6803F01F
:10092000E1FB10BD10B50300B622920080588A008A
:100930005218D2009B185A6A03F026FC10BD10B55D
:10094000B6239B00C05803F0E1FC10BD70B5040055
:100950004379022B09D1B625AD006059012103F07E
:10096000B7FC605903F085FC70BDFFF76DFCF2E742
:1009700010B50400B6239B00C05803F0ADFC637AA9
:10098000002B04D0024A136906210B43136110BDEA
:1009900000ED00E010B50400437A002B05D1B6232A
:1009A0009B00E05803F0A4FC10BD044A1369062123
:1009B0008B431361FFF777FFF1E7C04600ED00E0DE
:1009C00070B504001D48B6239B00C450183BE0508E
:1009D0001B4B036008230371063B4371C371002363
:1009E00043728372C37200F0E1FF002823D1B02567
:1009F000AD00605918230022002101F012FF605958
:100A000058230022802101F00CFF6059C0230022EE
:100A1000812101F006FF605988235B00002201213B
:100A200001F0FFFE605980235B000022822101F06B
:100A3000F8FE002070BDFFF707FCD8E7300C00205F
:100A4000005C004010B5B0239B00C05801F00EF8C8
:100A5000FFF71EFF10BD10B514001A00B0239B0055
:100A6000C058230001F08CFDFFF712FF10BD10B538
:100A7000B0239B00C05801F0C1FDFFF709FF10BD76
:100A800010B5B0239B00C05801F051FEFFF700FFE6
:100A900010BD10B5B0239B00C05801F082FEFFF7D7
:100AA000F7FE10BDB0239B00C3584AB2002A09DBF1
:100AB0007F2211408A005218D2009B185333FF3313
:100AC000187870477F2211408A005218D2009B1874
:100AD000987CF6E710B5B0239B00C05801F07AFC73
:100AE000FFF7D6FE10BD10B5B024A400005901F0E8
:100AF000EBFDFFF7CDFE10BD10B5B024A4000059EA
:100B000001F0B3FDFFF7C4FE10BD10B5B0239B008C
:100B1000C05801F0CFFD10BD00487047100A0020FA
:100B20007047000044230022C252043B014AC252D3
:100B30000020704780BFFFFF4022835A02490B40CC
:100B4000835200207047C0467F40000082B0009171
:100B500001924022012383520023835204328352A4
:100B60000C328352002002B070470000F0B5030041
:100B70000D78AD0045192A88B9480240C878022886
:100B800057D00AD8002811D0012804D18020C000F5
:100B9000024300200DE001200BE0032804D1C02017
:100BA000C0000243002004E0012002E08024A400F1
:100BB0002243AC4C224392B22A800D78AA009A18A4
:100BC0001688A94F3E4035432C43A4B214800A7BBB
:100BD000002A00D09EE04A78002A37D050229C5A42
:100BE0001C190A78D20012198024E400A446624439
:100BF000CC886408640014800A7892009A181488DB
:100C0000640605D515883D40984C2C43A4B2148049
:100C1000CA78012A0FD00A7892009A18138894494A
:100C20000B4020214B409BB28E490B439BB213805B
:100C3000CAE00020BDE70A7892009B1819888C4A08
:100C40001140884A0A4392B21A80BDE050255C5B8D
:100C50001C190A78D2001219864CA4466244CC882A
:100C60006408640014805C5B1C190A78D2001219B5
:100C7000814CA44662441488A405A40D14800C6918
:100C8000002C21D114887D4D2C43A4B214800A7805
:100C900092009A181488640406D51588724C254071
:100CA000774C2C43A4B214800A78002A25D19200F4
:100CB0009A18138873490B40C02189015940694B28
:100CC0000B439BB213807FE03E2C09D86508E407F4
:100CD00000D501351488AD02ADB22C431480D6E79F
:100CE0006509E40600D1013D1488AD02ADB225438B
:100CF000624C2C43A4B21480C9E792009A1813885E
:100D000060490B40802189015940564B0B439BB2EF
:100D1000138059E0CA78022A57D00A7892009A18AC
:100D20001588594C25404F4C2C43A4B214805025B3
:100D30005C5B1C190A78D20012198024E400A446D6
:100D400062440C896408640014805C5B1C190A7896
:100D5000D2001219474CA44662444C8964086400CE
:100D600014804A78002A3BD10A7892009A18148895
:100D7000640406D515883C4C2540414C2C43A4B254
:100D800014800A7892009A181488640606D515888B
:100D9000354C2540354C2C43A4B214800C78A4006B
:100DA0001C192588374A1540C02292016A402D4DF2
:100DB0002A4392B222800A7892009B181A882C4902
:100DC0000A402A4392B21A80F0BD0A7892009A181B
:100DD0001588254C25402D4C2C43A4B21480A6E741
:100DE0000A7892009A181488640406D515881E4C57
:100DF0002540234C2C43A4B214800A7892009A1800
:100E00001488640606D51588174C2540174C2C43CA
:100E1000A4B21480CA78012A17D00C78A4001C1937
:100E20002288134D2A4020256A4092B20D4D2A4354
:100E300092B222800A7892009B181988114A1140B8
:100E4000084A0A4392B21A80BEE70A7892009A18BA
:100E50001588074C2540034C2C43A4B21480E9E7C5
:100E60008F89FFFF8080FFFF8F8FFFFFC080FFFF14
:100E7000BF8FFFFF04040000060400000080FFFF96
:100E800080C0FFFF8FBFFFFF8F8EFFFF8081FFFFBE
:100E900010B50B7B002B33D14B78002B18D00B787F
:100EA0009B00C3181A88520606D51C884E4A144067
:100EB0004E4A224392B21A800B789B00C3181988BD
:100EC0004B4A11404B4A0A4392B21A80002010BD8F
:100ED0000B789B00C3181A88520406D51C88424A16
:100EE0001440454A224392B21A800B789B00C318E3
:100EF0001988424A11403F4A0A4392B21A80E5E7F4
:100F00004B78002B37D10B789B00C3181A885204FA
:100F100006D51C88344A1440374A224392B21A80BC
:100F20000B789B00C3181A88520606D51C882E4AD7
:100F300014402E4A224392B21A800B789B00C318A9
:100F40001C88294A1440294A224392B21A800C78FC
:100F5000A40004192388294A1340264A13439BB24C
:100F600023800B789B00C3181988214801400A434D
:100F700092B21A80AAE70B789B00C3181A88520411
:100F800006D51C88184A14401B4A224392B21A8084
:100F90000B789B00C3181A88520606D51C88124A83
:100FA0001440124A224392B21A800B789B00C31855
:100FB0001C880D4A1440104A224392B21A800C78C1
:100FC000A400041923880A4A13400A4A13439BB217
:100FD00023800B789B00C018038808490B401A43F4
:100FE00092B2028072E7C0468F8FFFFFC080FFFF82
:100FF000BF8FFFFF8080FFFF80C0FFFF8FBFFFFF1D
:101000004B78002B0ED00B789B00C01803880C4A3D
:101010001340102253409BB20A4A13439BB20380F1
:10102000002070470B789B00C0180388064A1340C5
:10103000802252015A40034B13439BB20380EFE7D7
:10104000BF8FFFFF8080FFFF8FBFFFFF10B50B7BBF
:10105000002B3AD14B78002B1DD00B789B00C31886
:101060001A88520606D51C88194A1440194A224388
:1010700092B21A80CB78012B27D00A78920082187E
:10108000138815490B4020214B409BB213490B4359
:101090009BB2138019E00B789B00C3181A88520486
:1010A00006D51C880A4A14400D4A224392B21A807F
:1010B0000B789B00C01803880A4A1340C022920193
:1010C0005A40064B13439BB20380002010BDC0461C
:1010D0008F8FFFFFC080FFFFBF8FFFFF8080FFFF6C
:1010E00080C0FFFF8FBFFFFF002902D14C23802269
:1010F000C2520020704700005822835A02490B4315
:101100009BB28352002070470080FFFF4423C05AE7
:1011100080B2704710B501335B0812188020C00000
:101120008446624407E00C7848780002204310802F
:1011300002320231013B002BF5D110BD70B5050024
:101140000C004B78012B2ED00A7B002A00D06EE2D7
:101150008B6909698B4200D84CE25B1AA36150236A
:10116000EA5AAA182378DB009B18B94A94466344CC
:101170001A889205920D1A80002900D03EE21A8842
:10118000B4490A4392B21A8023789B00ED182B8849
:10119000B14A1340C02292015A40B04B13439BB254
:1011A0002B80002070BD8E690A69964200D9160016
:1011B000217B002924D0E178022941D0226A921BA8
:1011C00022622278910069180988490600D4D1E189
:1011D000002B00D0BDE15033EB5AEB18D200D218EF
:1011E0009B4B9C46624413889B059B0D1380002EED
:1011F00000D095E1138897490B439BB21380B2E16D
:10120000B6B2E288616933002800FFF783FF5023FC
:10121000EA5AAA182378DB009B18914A9446634443
:101220001E8022789200AA1813888E490B40302124
:101230004B409BB289490B439BB213800020B1E71E
:10124000236A9A4200D350E123789B00EB18198857
:10125000854A1140854A0A4392B21A80236A9B1B31
:10126000236223789A00AA181288520600D495E0C7
:101270006278002A2CD15032AA5AAA18DB009B1897
:10128000734A944663441A889205920D1A80002E80
:1012900005D11A886F490A4392B21A801AE03E2E8D
:1012A00009D87208F10700D501321988920292B26A
:1012B0000A431A800EE07209F10600D1013A19883A
:1012C000920292B21143634A0A4392B21A8001E039
:1012D000012A26D06289B3B261692800FFF71AFF9C
:1012E00063699B196361236A2269934224D99B1B1A
:1012F00023626378002B3CD15033EA5AAA18237832
:10130000DB009B18564A944663441A889205920D56
:101310001A80002E14D11A884E490A4392B21A80BC
:1013200029E04F32AA5AAA18DB009B18484A944673
:101330006344B2B21A80CDE7002222621E00D8E7D1
:101340003E2E09D87208F10700D5013219889202A1
:1013500092B20A431A800EE07209F10600D1013AF6
:101360001988920292B211433A4A0A4392B21A8001
:1013700001E0012B06D02289B3B261692800FFF792
:10138000C9FE4EE74F33EA5AAA182378DB009B18B0
:10139000334A94466344B2B21A80ECE76278002A7A
:1013A0002CD15032A95A6918DA0052182C4B9C469D
:1013B000624413889B059B0D1380002E05D1138872
:1013C00024490B439BB213801AE03E2E09D87308C0
:1013D000F10700D5013311889B029BB20B431380A8
:1013E0000EE07309F10600D1013B11889B029BB20C
:1013F0001943184B0B439BB2138001E0012A37D0ED
:101400002289B3B261692800FFF784FE63699B19E2
:101410006361236A2269934235D99B1B23626378F7
:10142000002B4DD15033EA5AAA182378DB009B18C1
:10143000074A944663441A889205920D1A80002E3A
:1014400025D11A8803490A4392B21A803AE0C0466D
:10145000060400000080FFFF8FBFFFFF8080FFFFBA
:1014600002040000BF8FFFFF8F8FFFFF8081FFFF0F
:101470004F32AA5AAA18DB009B18BD4A944663440F
:10148000B2B21A80BCE7002222621E00C7E73E2EDD
:1014900009D87208F10700D501321988920292B278
:1014A0000A431A800EE07209F10600D1013A198848
:1014B000920292B21143AF4A0A4392B21A8001E0FB
:1014C000012B06D06289B3B261692800FFF722FEC2
:1014D000A7E64F33EA5AAA182378DB009B18A64ADE
:1014E00094466344B2B21A80ECE722789200AA18BC
:1014F0001088A2490840A249014389B211805022B4
:10150000A95A69182278D200521899498C46624427
:101510009BB21380228961692800FFF7FBFD80E6FA
:101520003E2E09D87308F10700D5013311889B02BC
:101530009BB20B43138016E07309F10600D1013B07
:1015400011889B029BB219438A4B0B439BB21380B9
:1015500009E05023EB5AEB18D200D218864B9C4678
:101560006244B3B213806289B3B261692800FFF7A5
:10157000D1FD56E6002B2CD15033EB5AEB18D2009C
:10158000D2187B4B9C46624413889B059B0D1380AD
:10159000002E05D1138877490B439BB2138022E0BC
:1015A0003E2E09D87308F10700D5013311889B023C
:1015B0009BB20B43138016E07309F10600D1013B87
:1015C00011889B029BB219436A4B0B439BB2138059
:1015D00009E05023EB5AEB18D200D218644B9C461A
:1015E0006244B3B213802289B3B261692800FFF765
:1015F00091FD16E60022A2611900B0E53E2909D846
:101600004A08C90700D501321988920292B20A43EA
:101610001A80B9E54A09C90600D1013A198892022F
:1016200092B21143534A0A4392B21A80ACE5CA7887
:10163000022A3AD0012A00D00EE18969226991423A
:1016400000D8C4E0891AA161002B14D15033E95AA3
:1016500069182378DB005B1845498C466344198878
:101660008905890D1980002A00D0B4E01988414805
:10167000014389B219806378002B00D0DDE050333C
:10168000E95A69182378DB005B183B498C466344B0
:1016900019888905890D1980002A00D0B4E01A88BC
:1016A00034490A4392B21A806EE5002B14D15033AC
:1016B000C25A82180B78DB009B182D4A944663446B
:1016C0001A889205920D1A800A69002A1DD11A887B
:1016D00028490A4392B21A806378002B52D15033C2
:1016E000EA5AAA182378DB009B18234A94466344DD
:1016F0001A889205920D1A802269002A1ED11A8832
:101700001C490A4392B21A803EE03E2A09D8510889
:10171000D20700D501311A88890289B20A431A809A
:10172000DAE75109D20600D101391A88890289B253
:101730001143104A0A4392B21A80CDE73E2A09D8D3
:101740005108D20700D501311A88890289B20A43AB
:101750001A8019E05109D20600D101391A8889028C
:1017600089B21143034A0A4392B21A800CE0C04680
:10177000020400000080FFFF060400008F8EFFFFC0
:101780008080FFFF012B16D0E369002B00D1FBE422
:1017900023789B00EB181A8830490A408A4202D00D
:1017A000002A00D0F0E419882D4A11402D4A0A433E
:1017B00092B21A80E8E44F33EA5AAA182378DB0081
:1017C0009B18294A94466344228A1A80DCE7002247
:1017D000A2610A0038E73E2A09D85108D00700D58F
:1017E00001311888890289B20143198043E7510900
:1017F000D00600D101391888890289B208431B49F3
:10180000014389B2198036E73E2A09D85108D20728
:1018100000D501311A88890289B20A431A80B3E4DB
:101820005109D20600D101391A88890289B21143BF
:101830000E4A0A4392B21A80A6E4012B00D0A3E418
:101840004F33E95A69182378DB005B1806498C4648
:10185000634492B21A8097E40120A3E44040000060
:101860008F8FFFFFC080FFFF060400000080FFFF96
:1018700010B55C0812188020C0008446624406E05F
:10188000108802320870000A48700231013C002CB6
:10189000F6D1DB0701D513880B7010BD70B553046A
:1018A0003CD504685023E35A0D78EE009B191B19B0
:1018B000384CA44663441C88A405A40D8B69A3423C
:1018C00022D31B1B8B618B69002B0CD10368AD00ED
:1018D0005D192B88304E33408026B6015E402F4B79
:1018E00033439BB22B8052060AD502680B789B00CB
:1018F000D21815882A4B1D402A4B2B439BB21380CC
:10190000002C04D1200070BD00238B61DBE7006850
:101910000A8949692300FFF7ABFFF3E70468502306
:10192000E35A0D78EE009B191B191F4CA446634423
:101930001C88A405A40D8B69A34227D31B1B8B61B4
:101940008B69002B0CD10368AD005D192B88124EFA
:1019500033408026B6015E40104B33439BB22B8050
:1019600052060AD402680B789B00D21815880C4BDB
:101970001D400C4B2B439BB21380002CC2D000683F
:101980004A8949692300FFF773FFBBE700238B6196
:10199000D6E7C046020400008FBFFFFF8080FFFF34
:1019A0008F8FFFFFC080FFFF0604000070B5041E8C
:1019B00058D02D4BC35C002B07D02B4B0322E25495
:1019C0002068FFF7B9F8002217E0A4239B0000224B
:1019D000C254FEF76DFFF0E793009B18DB00E3189D
:1019E000012159741A740021D974196259620132A3
:1019F00093009B18DB001951D2B220799042EBD8AA
:101A0000002119E08A005318DB00E3181E0052364B
:101A1000FF3600253570013E3170033635700D36C6
:101A200035606533FF331D605218D200A218693249
:101A3000FF3215600131C9B28842E3D8206861687D
:101A4000A268FFF783F800232373074B0122E254B7
:101A5000A37A012B01D0002070BD200000F0FEFE13
:101A60000020F9E70120F7E79102000070B50400BB
:101A7000A4239B00C35C012B0DD0A425AD00012342
:101A800043550068FFF74EF82068FFF735FB002349
:101A90006355002070BD0220FCE7000070B5050012
:101AA0000C001600530600D4EEE002685023D35A0F
:101AB0000978C8001B189B18AB4A944663441A88DF
:101AC0009205920DA369934240D99B1AA361A36921
:101AD000002B59D16378002B3BD12B6850229A5AA6
:101AE0009B18C318A04A944663441A889205920D25
:101AF0001A801A889D490A4392B21A802B6862782C
:101B0000002A33D150329A5A9A182378DB009B1856
:101B1000974A944663441A889205920D1A801A884F
:101B200092490A4392B21A8021782800FEF7FAFE01
:101B3000760439D52A6823789B00D21811888D4BFA
:101B400019408D4B0B439BB213802DE00023A36102
:101B5000BDE7012BD2D12B6850229A5A9B18C0188E
:101B6000814B9C46604400230380C7E7012ADBD1F8
:101B70004F329A5A9B182278D200D3187C4A944646
:101B8000634400221A80CFE7760409D52B688900C8
:101B900059180888774B1840774B03439BB20B804A
:101BA0002423E35C012B0FD0296823789B00C918FC
:101BB0000B88724A1340302253409BB2704A134341
:101BC0009BB20B80002070BD63699B186361E36961
:101BD000D318E361216A236999421AD3C91A216291
:101BE0006278002A3AD12A685021515A5118227835
:101BF000D20052185C498C46624411888905890DCF
:101C00001180002B11D111885848014389B21180ED
:101C100026E0002903D12423E1541300E0E7002348
:101C20002422A35423620B00DAE73E2B09D859087B
:101C3000D80700D501311088890289B2014311808B
:101C40000EE05909D80600D101391088890289B2FD
:101C500008434649014389B2118001E0012A06D0B8
:101C600028689BB222896169FFF754FA9CE72A68C9
:101C70005021515A51182278D20052183A498C46B4
:101C8000624499B21180EBE702685023D35A097875
:101C9000C8001B189B18364A944663441A8892055C
:101CA000920DA369934241D39B1AA361A369002BB0
:101CB00068D16378002B3CD12B6850229A5A9B182C
:101CC0001B18294A944663441A889205920D1A807B
:101CD0001A8826490A4392B21A802B686278002A31
:101CE00034D150329A5A9B182278D2009B18204A3D
:101CF000944663441A889205920D1A801A881B49EB
:101D00000A4392B21A8021782800FEF70BFE76046F
:101D100000D549E72A6823789B00D2181188154B13
:101D20001940154B0B439BB213803DE70023A36181
:101D3000BCE7012BD1D12B6850229A5A9B181B1853
:101D4000094A9446634400221A80C6E7012ADAD180
:101D50004F329A5A9B182278D2009B18044A944614
:101D6000634400221A80CEE7020400000080FFFFD7
:101D7000060400008F8FFFFF80C0FFFFBF8FFFFFB3
:101D80008080FFFF760409D42B68890059180888E1
:101D9000344B1840344B03439BB20B802423E35C49
:101DA000012B00D000E763699B186361E369D318D6
:101DB000E361216A236999421AD3C91A21622A6808
:101DC0006178002939D15031515A52182178C9000F
:101DD000521826498C46624411888905890D118064
:101DE000002B11D111882248014389B2118026E0CD
:101DF000002903D12423E1541300E0E700232362E8
:101E00002422A3540B00DAE73E2B09D85908D8073F
:101E100000D501311088890289B2014311800EE09A
:101E20005909D80600D101391088890289B20843BE
:101E30000F49014389B2118001E0012906D02868C9
:101E40009BB262896169FFF765F9ADE64F31515A7E
:101E500052182178C900521804498C46624499B23C
:101E60001180ECE78F8FFFFF80C0FFFF06040000AA
:101E70000080FFFFF8B5CE46474680B504002068D5
:101E80004423C35A1BB2002B00DB98E24423C35AFD
:101E900099B20F221D001540134200D0CBE0C906B5
:101EA0005DD503889AB21B0500D587E012B2002ADF
:101EB000E5DA0388D64A1340802213439BB203809D
:101EC00020685023C35AA8225200A25CD2009B185B
:101ED0001B18D04A944663441B889B059B0D220027
:101EE0005132FF32D361002B0ED0516900290BD043
:101EF0001500D288FFF7BCFC6B69EA699B186B611F
:101F000000212000FEF7FFFC2268138899B21B0510
:101F1000B5D4C0239B0119409942B0D05023D35A65
:101F2000D218BC4B9C46624413889B059B0D1380C2
:101F300023005133FF331B69002B63D11388B6494B
:101F40000B439BB2138021680B88B44A1340C02214
:101F500092015A40B24B13439BB20B808FE7028829
:101F6000B04B1A40AC4B13439BB203802168502303
:101F7000CB5A227CD2009B185B18AB4A9446634430
:101F80001B889B059B0DE362626AD3186362002184
:101F90002000FEF7C7FC237B002B00D16FE7A36A6C
:101FA000002B00D06BE7237B216880225242134331
:101FB000DBB2CC328B520023237360E75023C35A29
:101FC000A8225200A25CD2009B181B18914A94468A
:101FD00063441B889B059B0D22005132FF32D36165
:101FE000A62189006118D288FFF742FC2268138875
:101FF00087490B4080210B439BB213802000FEF7E2
:1020000077FC3CE73E2B09D85908DB0700D50131A6
:102010001388890289B20B43138094E75909DB06C0
:1020200000D101391388890289B219437A4B0B43D5
:102030009BB2138087E7AE00801903889FB21BB262
:10204000002B46DB3B0600D419E7AB005919C90049
:1020500010316118206880190688724A16406E4A4D
:10206000324392B202805B19DB00E318DB7C012B68
:1020700000D109E1FB0500D59CE120685023C35A3B
:10208000AA005219D200A218167CF2009B181B1845
:10209000654A944663441B889B059B0D6F1CBA00E0
:1020A000D219D20012599A4200D867E1BC46BF004B
:1020B0006744FF00D21A3A516F1CBA00D219D200FD
:1020C0001259002A00D060E131002000FEF72AFCFE
:1020D000D5E603884E4A1340802213439BB2038007
:1020E0007219D2005132FF329046A0447319DB00BE
:1020F000E3185D33FF331B78002B4BD1206850333E
:10210000C25A7319DB00E3185133FF331B78DB002D
:10211000D3181B183F4A944663441B889B059A0DAD
:102120009146002B28D1AA005219D200A218100003
:102130006D30FF30036849464B440360083803683C
:102140004B4403606932FF321368002B09D0AB00A7
:102150005B19DB00E3186133FF331B68994200D33E
:102160008DE0AB005B19DB00E3185133FF331978C6
:102170002000FEF7C8FB65E77319DB00E3181A00BF
:102180005732FF3212886533FF3319684B46FFF729
:102190006FFBC8E7AB005B19DB00E3185433FF3378
:1021A0001B78022B46D02168AB005B19DB00E318DB
:1021B0005133FF331A789200891808881B4A10405F
:1021C0001B4A024392B20A8020681A789300C3180F
:1021D0001B885B0435D55023C35AD2009B181B18AB
:1021E000114A944663441B889B059A0D9146002B27
:1021F00099D0AB005B19DB00E3181A005932FF32AB
:1022000012886533FF3319684B46FFF731FB8AE7C5
:102210008F0F0000060400000080FFFF8FBFFFFF4C
:102220008080FFFF0F8FFFFF020400008F8FFFFFF2
:10223000C080FFFF3A0041462000FFF72FFB814698
:1022400071E75023C35AD2009B181B185E4A94466C
:1022500063441B889B059A0D9146002B00D162E7D1
:10226000AB005B19DB00E3181A005B32FF32128807
:102270006533FF3319684B46FFF7FAFA53E72068D6
:102280004146FEF75BFFDDE66A1C93009B18DB000E
:1022900000221A51AB005B19DB00E3181B7F002BF7
:1022A0001FD07F0639D5AB005B19DB00E3185B7CE0
:1022B000002B1FD1236850329A5A9A18AB005B1931
:1022C000DB00E3181B7CDB009B18404A9446634408
:1022D0001A889205920D1A801A883D490A4392B2D3
:1022E0001A80AB005B19DB00E318197C2000FEF7B5
:1022F00019FBC4E5012BF4D1236850229A5A9A188D
:10230000AB005B19DB00E3181B7CDB009B182F4A3A
:102310009446634400221A80E3E72268AB005B190D
:10232000DB00E3185B7C002B16D15033D35AD21854
:10233000AB005B19DB00E3181B7CDB009B18224A17
:10234000944663441A889205920D1A801A8820498F
:102350000A4392B21A80C4E7012BC2D14F33D35A39
:10236000D218AB005B19DB00E3181B7CDB009B1869
:10237000154A9446634400221A80B2E76F1CBA00E3
:10238000D219D2000027175196E6AA005219D2009E
:10239000A218566AF61856620135AA005619F600B8
:1023A000A61976685219D200A2189B195360FEF73D
:1023B000C5FE64E53A002000FFF770FB5FE50020F2
:1023C000C0BCB946B046F8BD0604000002040000D7
:1023D0000080FFFF70B50400A4239B00C35C012BA9
:1023E0000BD0A425AD000123435501730068FEF70F
:1023F0007BFE00236355002070BD0220FCE7000037
:1024000070B504000068FEF781FE030418D443058C
:102410001AD4430426D483042BD4C30430D4030534
:1024200051D4030600D565E0830500D590E0C005D2
:102430001ED5216844228B5A4A4803408B5217E02C
:102440002000FFF717FD13E0216844228B5A46480D
:1024500003408B522000FEF779FA00212000FFF79D
:10246000B9FF05E0216844228B5A404803408B5253
:1024700070BD216844228B5A3D4803408B52F7E7D8
:1024800021684023CA5A04208243CA522168CA5A8A
:1024900004308243CA52B2239B00E35C012B09D073
:1024A0002000FEF777FA216844228B5A3148034016
:1024B0008B52DDE7B2239B000022E2540021200072
:1024C00000F0E1F9ECE7216840228B5A0820034331
:1024D0009BB28B5220684421435A274D2B404352D4
:1024E00021688B5A042003439BB28B522000FEF7D5
:1024F0003FFABDE7216844228B5A802083438B52E8
:10250000B2239B00E35C002B1ED12168043A8B5A56
:10251000042003439BB28B5221688B5A082003434B
:102520009BB28B52B2239B003F3AE2542268542361
:10253000D25A9208183B1340B3229200A3500121B3
:10254000200000F0A0F993E72000FEF711FA8FE7D2
:10255000216844228B5A094803408B522000FEF721
:10256000EEF985E7FFFEFFFFFFFBFFFFFFBFFFFF69
:10257000FFDFFFFFFFEFFFFFFFF7FFFFFFFDFFFFA5
:1025800070B504000D0049B2002925DB07262E4056
:10259000B0008119C9005131FF3161188019C000A4
:1025A00020185230FF30002606700720284008709F
:1025B0000A61CB70022B1CD0A4239B00E35C012B8F
:1025C0001AD0A425AD00012363552068FEF7CEFA8A
:1025D00000236355002070BD07262E40B0008119EE
:1025E000C900103161188019C000201801264674F6
:1025F000DBE700230B71DFE70220ECE770B5040096
:102600000A004BB2002B21DB072008408300191879
:10261000C9005131FF3161181B18DB00E318523338
:10262000FF3300201870072313400B70A4239B0076
:10263000E35C012B17D0A425AD000123635520686E
:10264000FEF726FC00236355002070BD07200840DC
:1026500083001918C900103161181B18DB00E3183A
:1026600001205874DFE70220EFE7F8B507260E4097
:10267000B400A119C9005131FF314118A519ED006D
:1026800045192F006537FF373A602A006932FF325B
:1026900013600432002313605235FF352B70A419E8
:1026A000E40004195134FF3426700068FEF746FD3B
:1026B0000020F8BD07230B409900C918C900401835
:1026C0006D30FF3000687047F0B5D6464F4646463D
:1026D000C0B5994607250D40AC006119C9001031FD
:1026E0008A4682446619F600861972626F1CBA0027
:1026F000D119C9000B5034218846B04433398C4677
:10270000414663460B704B463363D219D2008218A0
:102710000023536063467374357400685146FEF7B6
:102720000DFD0020E0BCBA46B146A846F0BD70B52C
:1027300004000B0007220A40017991422DD359B2BF
:1027400000291FDB9800C118C9005131FF31611801
:10275000C018C00020185230FF300023037001233E
:102760008B700A70A4239B00E35C012B17D0A42577
:10277000AD00012363552068FEF742FC002363553A
:10278000002070BD93009918C900103141189B18A2
:10279000DB00C31801205874E1E70120F1E70220B3
:1027A000EFE770B504000B0001790F221A40914247
:1027B00033D35AB2002A23DB0720184082001118B5
:1027C000C9005131FF3161181218D200A2185232DB
:1027D000FF320020107000228A70073213400B7005
:1027E000A4239B00E35C012B19D0A425AD00012399
:1027F00063552068FEF72AFC00236355002070BD56
:102800000720184082001118C900103161181218F1
:10281000D200A21801205074DDE70120EFE702206A
:10282000EDE710B50C060CD507240C40A1000919E2
:10283000C90010314018002A0AD10273C380002059
:1028400010BD8C006118C9005131FF314018F2E70A
:102850000122027303811B0C4381F0E70168B4235A
:102860009B000122C250083B0022C25454328B5AB2
:10287000012003439BB28B528B5A022003439BB22D
:102880008B5200207047704770B582B0041E00D193
:102890007FE20368DB072BD5B34B5A680C23134048
:1028A000042B1DD0B04B5A680C231340082B0ED0BC
:1028B0006368012B41D0002B56D1AB4B1A68AB4952
:1028C0000A401A601A68AA490A401A603BE0A64BFF
:1028D0005B68C02252021340802252029342E7D129
:1028E000A14B1B689B0303D56368002B00D153E207
:1028F00023689B0777D59C4B5B680C221A4262D0F9
:10290000994B5A680C231340082B53D0E368002BD3
:1029100000D18AE0944A136801210B43136000F050
:1029200045FC0500904B1B689B0775D400F03EFCEE
:10293000401B0228F6D903202CE28B4A1168802321
:102940005B020B4313606368002B25D000F02EFC64
:102950000500854B1B689B03CAD400F027FC401B75
:102960006428F6D9032015E2052B09D07E4B1A689E
:102970007E490A401A601A687D490A401A60E2E7F7
:10298000794B19688022D2020A431A6019688022A2
:1029900052020A431A60D6E700F008FC0500724BA9
:1029A0001B689B03A4D500F001FC401B6428F6D9EA
:1029B0000320EFE16C4B5B68C0225202134080227F
:1029C00012029342A2D1684B1B689B0703D5E368B0
:1029D000012B00D0E2E164490B68F822934322699D
:1029E000D20013430B6023681B0744D5E369002B17
:1029F0002ED05D4A536A01210B43536200F0D6FB8F
:102A00000500594B5B6A9B0735D400F0CFFB401B98
:102A10000228F6D90320BDE153490B68F8229343FD
:102A20002269D20013430B60DDE74F4A136801218E
:102A30008B43136000F0BAFB05004B4B1B689B07F0
:102A4000D1D500F0B3FB401B0228F6D90320A1E149
:102A5000454A536A01218B43536200F0A7FB0500EE
:102A6000414B5B6A9B0706D500F0A0FB401B022888
:102A7000F6D903208EE123685B0700D480E03A4B4F
:102A8000DB69DB001DD4384BDA69802149050A4334
:102A9000DA61DB690B400193019B0125354B1B6813
:102AA000DB0510D5A368012B21D0002B36D12E4B8E
:102AB0001A6A01218A431A621A6A03318A431A6226
:102AC0001AE00025EAE72B4A116880235B000B43DC
:102AD000136000F06BFB0600264B1B68DB05E1D49E
:102AE00000F064FB801B6428F6D9032052E11E4AE3
:102AF000136A01210B431362A368002B24D000F05A
:102B000055FB0600184B1B6A9B0737D400F04EFBA1
:102B1000801B194B9842F5D903203BE1052B09D0C6
:102B2000114B1A6A01218A431A621A6A03318A43D5
:102B30001A62E1E70C4B1A6A04210A431A621A6A04
:102B400003390A431A62D7E700F030FB0600064B50
:102B50001B6A9B0712D500F029FB801B064B98428D
:102B6000F5D9032016E1C04600100240FFFFFEFF2A
:102B7000FFFFFBFF0070004088130000012D39D0DB
:102B80002368DB0610D56369012B39D0053357D193
:102B9000894A536B04218B435363536BF4318B434A
:102BA000A169C9000B43536323689B066ED5824B12
:102BB0005A680C2313400C2B60D07F4B5A680C23AF
:102BC0001340082B53D0236A002B7ED07A4A516BD6
:102BD00080235B020B43536300F0E8FA0500764B59
:102BE0005B6B9B0352D400F0E1FA401B0228F6D93C
:102BF0000320CFE0704AD36970490B40D361BFE72F
:102C00006D4B5A6B04210A435A635A6B03390A43CA
:102C10005A6300F0CBFA0500674B5B6B9B0706D449
:102C200000F0C4FA401B0228F6D90320B2E0624942
:102C30004B6BF8229343A269D20013434B63B3E773
:102C40005D4B5A6B04210A435A635A6B03398A431A
:102C50005A6300F0ABFA0500574B5B6B9B07A3D59B
:102C600000F0A4FA401B0228F6D9032092E0524B50
:102C70005B68C022520213409342A4D14E4B5B6B5F
:102C80009B0303D5236A012B00D089E0636A002BE4
:102C900000D187E0484A51680C220A40082A60D0D7
:102CA000022B25D0444A136845490B40136000F0BD
:102CB0007DFA0400404B1B689B0150D500F076FA6A
:102CC000001B0228F6D9032064E03B4A536B3D49C0
:102CD0000B40536300F06AFA0500374B5B6B9B03B4
:102CE000D4D500F063FA401B0228F6D9032051E046
:102CF000314A136832490B40136000F057FA05005F
:102D00002D4B1B689B0106D500F050FA401B022892
:102D1000F6D903203EE0284BDA6A0F218A43216B63
:102D20000A43DA625A6828490A40E16AA06A014304
:102D30000A435A601968802252040A431A6000F05C
:102D400035FA04001C4B1B689B0106D400F02EFAD8
:102D5000001B0228F6D903201CE000201AE0002006
:102D600018E0012B20D0144B5A68D86AC0235B02AC
:102D70001340A16A8B4219D10F230340216B8B4270
:102D800016D1F0239B031A40E36A9A4212D1002025
:102D900000E0012002B070BD0120FBE70120F9E74F
:102DA0000120F7E70020F5E70120F3E70120F1E734
:102DB0000120EFE70120EDE700100240FFFFFFEFE9
:102DC000FFFFFFFEFFFFFEFFFF7FC2FF10B5184BA6
:102DD0005A680C231340082B03D00C2B25D115481F
:102DE00010BD910C0F2319401348445C1049C96A67
:102DF0000B401249C95CC0235B021A4080235B026E
:102E00009A4208D0C0235B029A4209D00C48FDF7D1
:102E100061F96043E4E70A48FDF75CF96043DFE7E6
:102E20000448FDF757F96043DAE70548D8E7C0469C
:102E300000100240006CDC02A85F0008985F0008E8
:102E400000127A0070B504000D00002800D186E061
:102E5000474B1A68012313408B420AD244490B683E
:102E6000012293432B430B600B681A40AA4200D007
:102E700077E023689A070ED55B0705D53D4A516870
:102E8000E023DB000B4353603A4A5368F0218B4345
:102E9000A1680B4353602368DB0735D56368012BBA
:102EA00009D0022B24D0032B28D0324A1268920773
:102EB00005D4012052E02F4A1268920353D52D49C0
:102EC0004A680320824313434B6000F06FF9060009
:102ED000284B5B680C221A4063689B009A4213D00F
:102EE00000F064F9801B244B9842F1D9032035E0AF
:102EF000204A12689201E2D401202FE01D4A526B51
:102F00009203DCD4012029E0194B1A6801231340F5
:102F1000AB4209D916490B68012293432B430B603E
:102F20000B681A40AA4220D123685B0706D5114AD4
:102F3000536812490B40E1680B435360FFF746FFAB
:102F40000C4B5A6812090F2313400D4AD35CD8402A
:102F50000C4B1860032000F0E5F8002070BD012044
:102F6000FCE70120FAE70120F8E70120F6E7C04678
:102F7000002002400010024088130000FFF8FFFF0D
:102F8000B85F00085C00002070B582B004000368E0
:102F9000DB0339D5484BDB69DB0060D4464BDA698B
:102FA000802149050A43DA61DB690B400193019BEB
:102FB0000125424B1B68DB0553D53F4B1A6AC023E2
:102FC0009B00110019401A4215D06368C02292007C
:102FD00013408B420FD0384B1A6A394911401E6A90
:102FE0008020400230431862186A364E3040186222
:102FF0001962D20749D4304A136A31490B406168DB
:103000000B431362012D4FD02368DB0706D52A4AF4
:10301000136B03218B43A1680B43136323689B0647
:1030200006D5254A136B10218B43E1680B431363CC
:1030300023689B0306D5204A136B80218B4361696B
:103040000B43136323685B0533D51B4A136B402185
:103050008B4321690B431363002002B070BD002530
:10306000A7E7164A116880235B000B43136000F04A
:103070009DF80600114B1B68DB059ED400F096F806
:10308000801B6428F6D90320E7E700F08FF80600DC
:10309000094B1B6A9B07AED400F088F8801B0A4BD3
:1030A0009842F5D90320D8E7D36908490B40D3618A
:1030B000AAE70020D1E7C04600100240007000409F
:1030C000FFFCFFFFFFFFFEFF88130000FFFFFFEF85
:1030D000104B1969802212050A431A611A690E49B8
:1030E0000A401A6103684268134382681343C26846
:1030F0001343026912041A43084B5A601A680849BC
:103100000A40416909020A431A601A6860210A43A9
:103110001A60704700100240FFFFFFF7006C00408C
:10312000FFC0FFFF10B504000F4B1978FA20800094
:10313000FCF7D0FF01000D4B1868FCF7CBFF00F047
:1031400005FA00280DD1032C01D901200AE0013035
:1031500000222100404200F0E9F9054B1C600020EC
:1031600000E0012010BDC046540000205C0000209B
:103170005800002010B5064A136810210B43136055
:103180000320FFF7CFFFFDF725FA002010BDC04652
:1031900000200240034A1168034B1B785B18136040
:1031A0007047C0460C0F002054000020014B1868E7
:1031B0007047C0460C0F002070B50400FFF7F6FF03
:1031C0000500631C02D0044B1B78E418FFF7EEFFE8
:1031D000401BA042FAD370BD54000020F0B583B06C
:1031E000002356E086685F000324BC40A643CC68F9
:1031F000BC4034438460446894434E6836090122DD
:1032000032409A402243426053E0DE080836B6005E
:10321000375805321A4092000F249440A7430C6996
:10322000944022003A43325056E0022600E0002645
:10323000A64034003C4302329200424E9451424A2E
:103240009768EA433E00AE434C68E40201D53E0075
:103250002E433D4CA660E7683E0016404C68A40231
:1032600001D53E002E43384CE66067683E001640AC
:103270004C68A40301D53E002E43334C666026689B
:1032800032404C68E40301D52A0032432E4C2260C0
:1032900001330C682200DA4051D001229A40250007
:1032A00015401442F4D04E6803243440013C012CF4
:1032B00098D94C6803222240032A08D0C4685E00D3
:1032C0000322B24094438A68B2402243C2604C68F1
:1032D00003222240022A98D004685E0003221700CD
:1032E000B740BC434F683A40B240224302604C684A
:1032F000C02292021442CBD0144CA669012216437C
:10330000A661A46922400192019A9A08941CA40023
:103310000C4EA75903241C40A4000F26A640B74317
:103320009026F605B04282D0094EB04205D0094E33
:10333000B04200D179E705267AE7012678E703B0A5
:10334000F0BDC046000001400004014000100240F2
:103350000004004800080048F0B5CE46474680B556
:103360008946002323E00221884601E000218846A7
:103370004146A140A94240D004685E000325B54003
:10338000AC430460DC080834A400275807261E401C
:10339000B6000F21B1408F432750C468AC43C460CE
:1033A0004468944344608268AA43826001334A4679
:1033B000DA4037D001229A404C461440A446494690
:1033C0001142F3D09F08BC1CA400184D6559032678
:1033D0001E40B4000F26A64035409021C905884202
:1033E000C4D01349884205D012498842BBD0052178
:1033F0008846BDE701218846BAE70F4C256861463B
:103400008D43256065688D436560E5688D43E560A3
:10341000A5688D43A56005490237BC006558B543D2
:103420006550A9E7C0BCB946B046F0BD00000140F8
:10343000000400480008004800040140002A01D0B0
:10344000816170478162FCE710B52123C35C022BC8
:1034500003D004238363012010BD026813680E218A
:103460008B43136001680A6801239A430A60016C68
:10347000C26B1C008C405460212283541F330022F5
:10348000C254436B002B02D098470020E4E7002091
:10349000E2E7000070B5002811DB8308134DC0334C
:1034A0009B005C5903221040C000FC32160086408D
:1034B000B44389010A40824022435A5170BD0F2310
:1034C0000340083B9B0806339B00094A944663442B
:1034D0005C6803221040C000FC3215008540AC43FC
:1034E00089010A40824022435A60E7E700E100E098
:1034F00000ED00E0013880235B0498420FD2094AB6
:1035000050600948036A1B021B0AC02109060B43CD
:10351000036200239360073313600020704701208B
:10352000FCE7C04610E000E000ED00E010B5FFF75A
:10353000B1FF10BD002805DB1F220240012393408C
:10354000014A13607047C04600E100E010B5FFF784
:10355000D1FF10BDF0B5D6464F464646C0B582B045
:1035600006000D0090461F00FFF720FE0A9B181A68
:103570008146B944FFF71AFE82462C4B1B685B015B
:103580001B0D4A465343019333689C682C40641BCF
:1035900063425C41444542D07B1CF5D0FFF706FEF8
:1035A0005346C01A484508D2019A002A00D04A461C
:1035B000019B013B01939146E6E732685368E021A5
:1035C0008B435360726882235B009A420CD0B26ACC
:1035D00080239B019A4216D05D230122F254013BC5
:1035E0000022F25403201BE0B368802212029342AF
:1035F00003D08022D2009342E9D13268136840217F
:103600008B431360E3E73268136809490B4013608A
:103610003268116880239B010B431360DCE70020B4
:1036200002B0E0BCBA46B146A846F0BD5C0000203E
:10363000FFDFFFFFF0B5DE4657464E464546E0B594
:1036400083B007000D00160098466B460022DA7022
:10365000FFF7ACFD0C9B181A40448146FFF7A6FD0E
:1036600082463B689B46344B1B689A00D218D300B5
:103670009B1A1B0D4A465343019302E04346013314
:1036800011D13B689C682C40B4424DD0C023DB0074
:103690009D42F3D1002EF1D15B461B7BDBB26A4623
:1036A000D370D378EAE7FFF781FD5346C01A484547
:1036B00008D2019A002A00D04A46019B013B01939F
:1036C0009146DEE73A685368E0218B4353607A689D
:1036D00082235B009A420CD0BA6A80239B019A42F3
:1036E00016D05D230122FA54013B0022FA54032034
:1036F0001BE0BB6880221202934203D08022D200DA
:103700009342E9D13A68136840218B431360E3E7A1
:103710003A68136809490B4013603A6811688023BE
:103720009B010B431360DCE7002003B0F0BCBB46F9
:10373000B246A946A046F0BD5C000020FFDFFFFFB7
:1037400070B582B004000D001600C02100922B005D
:1037500000224901FFF76EFF002818D100962B00C8
:10376000002280212000FFF7F5FE002816D1C0219D
:1037700000962B000022C9002000FFF75BFF002805
:103780000AD0236E202213432366032004E0236E15
:10379000202213432366032002B070BD236E202233
:1037A000134323660320F7E770B5041E00D178E0C9
:1037B000436A002B07D142680533FF339A4205D094
:1037C0000023C36102E00023036143610023A3627D
:1037D0005D33E35C002B5AD05D230222E254226861
:1037E000136840218B431360E368E022D2009342C8
:1037F00054D90022F02109018B4205D0E021C900F3
:103800008B4201D00023A3626368822149000B40F0
:10381000A1688420000201400B432069022101407D
:103820000B436069012108400343A0698025AD0076
:1038300028400343E569382028400343256A802057
:1038400028400343A06A8025AD0128402568034332
:103850002B60608B04230340656A102028400343DB
:10386000656B082028400343E068F0252D012840BF
:1038700003432068134343602268D3690A48034026
:10388000D361002323665D33E154002070BD5C33B7
:103890000022E2542000FCF7B5FE9DE78022520191
:1038A000A8E70120F2E7C046FFF7FFFF10B50029A7
:1038B00047D0002A47D05D23C35C012B45D15B3341
:1038C000C35C012B43D05C230124C4540133023474
:1038D000C4540023036681638287C2870364442241
:1038E000835202328352C364C268E023DB009A42EF
:1038F00018D9184B0365826880231B029A4214D0A2
:10390000026813685B0603D4136840210B431360FD
:103910005C230022C25402685368A0210B43536009
:10392000002010BD0C4B0365E5E7026813684021D9
:103930008B431360026811688023DB010B43136023
:10394000DEE70120EDE70120EBE70220E9E70220B6
:10395000E7E7C046E3390008BD3900087047704703
:1039600010B582B00400FFF721FC020021684B680B
:10397000A02083434B6064212000FFF7E1FE002874
:1039800003D0236E202213432366A368002B06D1A5
:1039900001932368DA6801929B680193019B5D2380
:1039A0000122E254236E002B04D02000FFF7D7FF42
:1039B00002B010BD2000FFF7D1FFF9E710B5826B10
:1039C000036812781A73836B01338363C38F013BDF
:1039D0009BB2C387C38F002B00D010BDFFF7C0FF81
:1039E000FBE710B5826B03681288DA60836B0233E1
:1039F0008363C38F013B9BB2C387C38F002B00D06F
:103A000010BDFFF7ADFFFBE7F0B585B0040002681D
:103A1000556893689909012006000E40084203D1B9
:103A2000D90701D569066AD4990701D529066AD450
:103A30005909012007000F40084203D1002E01D18F
:103A4000D90563D5A90661D5002E0ED05D21615C34
:103A500003295DD0216E04200143216600210091DD
:103A6000D1680091916800910099002F0CD0216ECF
:103A700001200143216600210291916802911168A1
:103A80003F3081431160029ADB0509D5236E08227D
:103A9000134323660023039323689B680393039BCC
:103AA000236E002B32D022685368E0218B43536091
:103AB0005D230122E254AD0732D022685368DD391C
:103AC0008B435360A36D002B0AD0174A5A63A06D35
:103AD000FFF7BAFC002803D0236E4022134323666D
:103AE000636D002B12D0104A5A63606DFFF7ACFC77
:103AF00000280BD0236E40221343236606E0E36CBC
:103B00002000984702E0236D2000984705B0F0BDE3
:103B100000230193D368019393680193019BF5E718
:103B20002000FFF71CFFF1E72D3B000810B5406AAD
:103B3000002346228352C387FFF711FF10BD30B523
:103B4000036A046A0125AC4304628469EF35AC431F
:103B5000120122430A24A3430B438261036230BD56
:103B600030B5036A046A1025AC4304628469054DCC
:103B70002C4012032243A024A3430901194382616C
:103B8000016230BDFF0FFFFF8368702293430B4338
:103B9000693A1343836070473D23C35C012B23D1F3
:103BA0003C330222C2540268D36801210B43D36024
:103BB00003680F4A93420CD08022D205934208D06A
:103BC0000C4A934205D01A6801210A431A6000206A
:103BD0000BE0996807220A40062A07D01A680121DB
:103BE0000A431A60002000E0012070470020FCE733
:103BF000002C014000040040704770477047704738
:103C000070B504000368DE681D69AA070ED5B20707
:103C10000CD5032252421A610123037703689B6982
:103C20009B0751D0FFF7E9FF002323776B0712D5DD
:103C3000730710D52368052252421A6102232377A5
:103C400023689A69C0239B001A4243D02000FFF7E3
:103C5000D4FF002323772B0710D533070ED5236815
:103C6000092252421A61042323772368DB699B07E8
:103C700037D02000FFF7C1FF00232377EB0612D5D2
:103C8000F30610D52368112252421A6108232377C4
:103C90002368DA69C0239B001A4229D02000FFF76D
:103CA000ACFF00232377EB0701D5F30727D42B06BE
:103CB00001D533062BD46B0601D573062FD4AD0680
:103CC00001D5B60633D470BDFFF796FF2000FFF78D
:103CD00095FFA9E72000FFF78FFF2000FFF78EFF79
:103CE000B7E72000FFF788FF2000FFF787FFC3E753
:103CF0002000FFF781FF2000FFF780FFD1E7236856
:103D0000022252421A612000FCF760FCCFE72368D0
:103D1000812252421A61200000F051F9CBE723685A
:103D2000412252421A612000FFF769FFC7E723686A
:103D3000212252421A61200000F040F9C3E700003E
:103D40000368214A904206D08022D205904202D0D8
:103D50001E4A904203D1702293434A6813431A4A81
:103D600090420FD08022D20590420BD0174A904249
:103D700008D0174A904205D0164A904202D0164AFF
:103D8000904203D1154A1A40CB68134380229343D3
:103D90004A69134303608B68C3620B6883620A4BF2
:103DA000984205D00B4B984202D00B4B984201D160
:103DB0000B690363012343610269134203D0036962
:103DC0000122934303617047002C0140000400402E
:103DD000002000400044014000480140FFFCFFFF7C
:103DE00070B5041E26D03D23C35C002B1CD03D259E
:103DF00002236355210001C9FFF7A2FF01234622D8
:103E0000A354083AA3540132A3540132A3540132FB
:103E1000A3540132A3540132A3540132A3540132FA
:103E2000A3546355002070BD3C330022C254FCF7FC
:103E300023FCDCE70120F6E730B58468034D2C4015
:103E40001B0213430B432343836030BDFF00FFFF7E
:103E500010B504000B003C22825C012A00D177E0FF
:103E60003C220121815401320131815401688A6868
:103E7000384802408A60196860294FD023D8402909
:103E800057D011D8202904D00AD8002901D01029F0
:103E900004D12068FFF778FE00202AE0012028E006
:103EA0003029F6D0012024E050290AD15968DA6877
:103EB0002068FFF744FE20685021FFF765FE0020D0
:103EC00017E0012015E08022520191423CD080226F
:103ED0009201914214D0702938D199685A68DB68F0
:103EE0002068FFF7A9FF2268936877210B4393604E
:103EF00000203D230122E254013B0022E25410BD88
:103F000099685A68DB682068FFF796FF2268916815
:103F10008023DB010B4393600020EAE75968DA68ED
:103F20002068FFF71DFE20686021FFF72DFE0020AE
:103F3000DFE75968DA682068FFF701FE2068402152
:103F4000FFF722FE0020D4E70020D2E70120D0E7CF
:103F50000220D4E78800FFFF30B53C23C35C012B6F
:103F600025D03C230122C25401330132C2540368DC
:103F70005C689D686E3294430A6822435A60036805
:103F80000C4A934206D08022D205934202D00A4ABC
:103F9000934204D1802295434A682A439A603D2384
:103FA0000122C254013B0022C254002030BD022035
:103FB000FCE7C046002C01400004004070477047F9
:103FC0007047000010B5002816D0AD239B00C358E1
:103FD000002B03D0AD239B000024C450002902D045
:103FE000AC239B00C150A7239B000121C154027048
:103FF000FCF7E6FC002010BD054801F077F8054805
:1040000001F074F80A2001F081F80220F3E7C046BD
:10401000605F0008685F000810B5002904D0AD2378
:104020009B00C150002010BD054801F05FF8054815
:1040300001F05CF80A2001F069F80220F3E7C046BD
:10404000605F0008805F000810B5FCF7FBFC0020F3
:1040500010BD10B5AD239B00C358002B06D01B68C4
:104060009847002800D110BD0220FCE70220FAE7A3
:1040700010B5AD239B00C3585B689847002010BD66
:1040800070B50400AA239B00C518280000F064F94D
:10409000A5239B000122E250114BE25A163BE2504D
:1040A0001033E15C1F230B40012B09D0022B0CD0F5
:1040B000002B0FD12900200000F028FB002070BD4C
:1040C0002900200000F058FBF8E72900200000F04C
:1040D00086FBF3E77F2399432000FCF7D1FCEDE753
:1040E000AE02000070B505000C001100002C38D1A4
:1040F000A5239B00C358032B03D0052B28D02000F9
:104100003DE002005532FF32D368126993420DD967
:104110009B1A5530FF30C3609A4205D99AB22800E5
:1041200000F0AAFC20002AE092B2F8E7AD239B0041
:10413000C3581B69002B04D0A7229200825C032A7B
:1041400004D0280000F0A0FC200018E09847F8E711
:10415000A5239B000022C2500021FCF791FC200007
:104160000DE0AD239B00C3589B69002B08D0A7220C
:104170009200825C032A05D121009847002070BD7F
:104180000220FCE70220FAE7F8B505000C00110058
:10419000002C5BD1A5239B00C358022B0ED0042B0F
:1041A00001D0002B03D180212800FCF769FCA82353
:1041B0009B00EB5C012B43D02000F8BD026A466AED
:1041C000B24220D8C76931003800FBF7BFFF002991
:1041D00006D1BE4204D8A6239B00EB589F421ED3B3
:1041E000AD239B00EB58DB68002B04D0A722920084
:1041F000AA5C032A21D080212800FCF741FC28007A
:1042000000F04EFCD3E7921B026292B200F01BFC5E
:104210000023002200212800FCF76EFCC7E70022E3
:10422000280000F010FCA6239B000022EA50002387
:1042300000212800FCF760FCB9E728009847DAE77E
:10424000A8239B000022EA542000B6E7AD239B0080
:10425000C3585B69002B08D0A7229200825C032A16
:1042600005D1210098470020A7E70220A5E70220FA
:10427000A3E770B50400402300220021FCF7EBFB0C
:104280000125AC235B00E55040260C33E650253B6E
:10429000FF3B002280212000FCF7DDFBA561666268
:1042A000A7239B00E5540023A5229200A35063603E
:1042B0001032A350AE239B00E358002B06D0AD2351
:1042C0009B00E3585B68002120009847002070BDE8
:1042D0000174002070470000A7239B00C15C034AC3
:1042E00081540422C25400207047C0469D02000041
:1042F000A7239B00C35C042B01D000207047024B16
:10430000C25C013BC254F8E79D02000010B5A72330
:104310009B00C35C032B01D0002010BDAD239B008C
:10432000C358DB69002BF7D09847F5E7030000205E
:1043300002E00130C0B201331A78002AF9D1704787
:1043400010B54B88012B00D010BDA9239B00012282
:10435000C25000F099FBF7E70B7803704B7843707D
:104360008B78CA7812029B1843800B794A79120223
:104370009B1883808B79CA7912029B18C38070477F
:1043800010B504008021FCF77BFB00212000FCF726
:1043900077FB10BD30B583B005000C006B460022E2
:1043A000DA804A88130A072B00D9B6E09B006549DA
:1043B000CB589F46AC239B00C3581B68007C6A46C1
:1043C000911D98476B4606331B88002B03D0E2886B
:1043D000002A00D0A6E0E388002B00D1AEE003B0B5
:1043E00030BD037C002B09D1AD239B00C3589B6AD1
:1043F0006A46901D984702234370E3E7AD239B0074
:10440000C358DB6A6A46901D984702234370D9E778
:10441000D2B2052A5DD892004B4B9B589F46AC23E5
:104420009B00C3585B68002B04D0007C6A46911D3A
:104430009847C7E72100FFF7A3FFD0E7AC239B0015
:10444000C3589B68002B04D0007C6A46911D984796
:10445000B8E72100FFF794FFC1E7AC239B00C358E6
:10446000DB68002B04D0007C6A46911D9847A9E7C1
:104470002100FFF785FFB2E7AC239B00C3581B69FF
:10448000002B04D0007C6A46911D98479AE72100D2
:10449000FFF776FFA3E7AC239B00C3585B69002BB3
:1044A00004D0007C6A46911D98478BE72100FFF7F6
:1044B00067FF94E7AC239B00C3589B69002B04D093
:1044C000007C6A46911D98477CE72100FFF758FF62
:1044D00085E72100FFF754FF81E7037C002B07D11C
:1044E000AD239B00C3585B6B6A46901D984769E7F4
:1044F0002100FFF745FF72E7037C002B09D1AD23B4
:104500009B00C3581B6B6A46901D98470723437056
:1045100058E72100FFF734FF61E721002800FFF78B
:104520002FFF5CE7191C934200D9111C8AB26B461D
:10453000D9800100280000F078FA4CE7280000F04C
:10454000A3FA4CE7C85F0008E85F000870B50400F4
:104550008B88002B23D1CB88002B20D14B887F2B3D
:104560001DD87F251D40A7239B00C35C032B0ED0C5
:104570000D4BC5542900FCF7ADFA200000F084FA79
:10458000002D07D0A7239B000222E2540AE0FFF788
:10459000F7FE07E0A7239B000122E25402E020007F
:1045A000FFF7EEFE70BDC0469E02000070B504002D
:1045B0000D0089782A4B197001290FD8A7239B0079
:1045C000C35C022B0ED0032B23D02900FFF7D8FEAB
:1045D000234B19782000FFF74BFD02E02900FFF77D
:1045E000CFFE70BD002911D04160A7239B0003229C
:1045F000C254FFF72EFD022803D0200000F044FA39
:10460000EFE729002000FFF7BBFEEAE700F03CFAE5
:10461000E7E7002911D0436899421ED0D9B2FFF7CD
:1046200027FD0F4B197861602000FFF712FD02286B
:104630000ED0200000F028FAD3E7A7239B00022227
:10464000C2544160FFF714FD200000F01DFAC8E7D6
:1046500029002000FFF794FEC3E700F015FAC0E739
:10466000100F002010B5CB88012B0BD1A7239B0086
:10467000C35C022B09D9032B11D1011D012200F0CB
:10468000D4F901E0FFF77CFE10BD002B07D000231A
:10469000836001000831012200F0C7F9F4E7FFF759
:1046A0006FFEF1E710B5A7239B00C35C013B022B13
:1046B00014D8CB88022B0ED10023C360A9239B0002
:1046C000C358002B01D00223C36001000C31022229
:1046D00000F0ABF910BDFFF753FEFBE7FFF750FE0C
:1046E000F8E710B5A7239B00C35C013B022B0AD857
:1046F0004B88012B00D010BDA9239B000022C25083
:1047000000F0C2F9F7E7FFF73BFEF4E710B50A78CF
:1047100060231340202B06D0402B04D0002B09D05F
:10472000FFF72EFE04E0AD239B00C3589B6898471B
:10473000002010BD4B78092B18D89B000D4AD35888
:104740009F46FFF727FEF3E7FFF700FFF0E7FFF7CD
:104750002DFFEDE7FFF786FFEAE7FFF7A3FFE7E7A7
:10476000FFF7EEFDE4E7FFF7BCFFE1E7FFF708FE28
:10477000DEE7C0460060000870B505000C000A784E
:1047800060231340202B07D0402B05D0002B03D0F3
:10479000FFF7F6FD002070BDA7239B00EB5C013BFB
:1047A000022B17D82379012B0FD8AD239B00EB5890
:1047B0009B68210028009847E388002BEAD1002855
:1047C000E8D1280000F060F9E4E721002800FFF7B5
:1047D000D7FDDFE721002800FFF7D2FDDAE770B54B
:1047E000050088880A790B7860241C40202C08D0AA
:1047F000402C06D0002C0DD02800FFF7C1FD00246E
:1048000006E0AD239B00EB589B68280098470024E6
:10481000200070BD202C0AD04E78012E3ED0032EF1
:104820000DD0002E64D02800FFF7AAFDF0E7AD23DD
:104830009B00EB589B68280098470400E8E7A723F3
:104840009B00EB5C022B05D0032B14D02800FFF754
:1048500097FDDDE7002A01D0802A03D12800FFF769
:104860008FFDD5E711002800FCF70AF98021280008
:10487000FCF706F9CCE74B88002B06D1002A04D0C0
:10488000802A02D0CB88002B03D0280000F0FCF84F
:10489000BEE711002800FCF7F3F8F6E7A7239B001A
:1048A000EB5C022B05D0032B14D02800FFF768FD2A
:1048B000AEE7002A01D0802A03D12800FFF760FD6F
:1048C000A6E711002800FCF7DBF880212800FCF7A0
:1048D000D7F89DE74B88002B9AD1530603D12800C7
:1048E00000F0D2F894E711002800FCF7D2F8F6E7C0
:1048F000A7239B00EB5C022B06D0032B29D02800BA
:10490000FFF73EFD340083E7002A01D0802A12D150
:10491000000615D47F2313409900C918890051312E
:10492000FF316918043100230B600222280000F0D7
:104930007CF834006CE72800FFF722FD340067E7BD
:104940007F2313409900C918890010316918043178
:10495000E9E744B2000622D40F20104083001B1860
:104960009B00EB185933FF331B68002B25D0002C1C
:1049700028DB7F2313409C00E418A4005134FF344B
:104980002C190434002A01D0802A24D1002323606A
:1049900002222100280000F048F8340038E70F20F8
:1049A000104083001B189B00EB189B69002BDED185
:1049B0002800FFF7E5FC34002AE72800FFF7E0FCB9
:1049C000340025E77F2313409C00E418A400103432
:1049D0002C190434D6E711002800FCF763F80028EE
:1049E00002D001232360D3E700232360D0E770B512
:1049F00004000D001600002816D0FFF797FC0130C8
:104A000043009BB233802B7003236B70013B08E0A3
:104A100001345A1CD2B2E8540233DBB2AA18002186
:104A2000117020780028F3D170BD10B51300A522B5
:104A3000920002248450C36103620A000021FCF743
:104A400052F8002010BD10B513000A000021FCF739
:104A50004AF8002010BD10B51300A52292000324CF
:104A60008450393AFF3A8350043283500A000021BF
:104A7000FCF742F8002010BD10B513000A00002119
:104A8000FCF73AF8002010BD10B5A5239B000422C6
:104A9000C250002300220021FCF725F8002010BDA1
:104AA00010B5A5239B000522C2500023002200213F
:104AB000FCF722F8002010BD00207047002070474E
:104AC00070B504000E00074D0100280000F0C4F985
:104AD000280000F0E7F931002000FBF7A1FB0020DF
:104AE00070BDC046E806002010B50649064C0022FD
:104AF000200000F0A6F90549200000F0ADF90020E3
:104B000010BDC046140F0020E8060020780F0020DA
:104B100010B50A00094BAE218900595885239B0026
:104B2000CB58002B01D0012010BD044C0100200007
:104B300000F087F9200000F096F9F5E7E80600207C
:104B400010B5AE239B00C4580433C358002B0DD0BE
:104B500080229200A05CFF2808D09B68044AA25CD7
:104B60002100984780239B00FF22E254002010BDC3
:104B7000010200004323038000487047B400002076
:104B80004323038000487047F8000020432303803C
:104B900000487047700000200A23038000487047D7
:104BA0007401002070B50400AE25AD004659FBF736
:104BB000ACFF83239B00F0506359002B0BD0AF2335
:104BC0009B00E358DB6883229200B118083AB05882
:104BD0009847002070BD0220FCE770B504000D006E
:104BE000AE239B00C6580833C258002E21D08B003C
:104BF0005B189B00C318D869002808D08B005B188D
:104C0000DB00D218116AFBF7A1FA002905D0852331
:104C10009B000022F250002070BDAB005B199B008E
:104C2000E3180022DA61002329002000FBF75BFF74
:104C3000F1E70220F0E70000F0B583B005000C00BA
:104C4000AE239B00C75800236A46D37101AA138084
:104C50000B78602216001E401A422BD0202E5BD10A
:104C6000CA88002A1DD05BB2002B0DDAAF239B004F
:104C7000C3589B68487839009847E2883900280073
:104C8000FFF7D3FE00264AE04A7880239B00FA54BF
:104C90008A79244BFA54CA883900FFF7DCFE0026D3
:104CA0003DE0AF239B00C3589B684878002298479B
:104CB000002634E04F780A2F12D00B2F1FD0002F80
:104CC00026D1A7239B00C35C032B03D0FFF758FB1F
:104CD000022624E0022201A9FFF7A7FE3E001EE003
:104CE000A7239B00C35C032B03D0FFF749FB0226DD
:104CF00015E001226B46D91DFFF797FE0FE0A723B1
:104D00009B00C35C032B0AD0FFF73AFB022606E0A8
:104D1000FFF736FB022602E0FFF732FB02263000E7
:104D200003B0F0BD0102000070B504008121FBF763
:104D30009EFE0025E56201212000FBF798FEB623C8
:104D40005B00E55082212000FBF791FE2564AE2335
:104D50009B00E358002B0BD0AF239B00E3585B680C
:104D60009847AE25AD006059FBF7DAFE002363518A
:104D7000002070BD70B50400037C002B3AD1802662
:104D8000B600330002228121FBF765FE0125E562B2
:104D90003300022201212000FBF75DFEB6235B00F9
:104DA000E5500823032282212000FBF754FE012353
:104DB000236487208000FBF7AFFE0500AE239B0035
:104DC000E050002832D00433E3581B689847002392
:104DD00085229200AB500432AB50267C002E1AD1B3
:104DE0008033143AAA589B0001212000FBF784FE6F
:104DF000300070BD402302228121FBF72CFE0125EB
:104E0000E5624023022201212000FBF724FEB623A5
:104E10005B00E550C5E781239B00EA58C53BFF3B9B
:104E200001212000FBF768FE0026E1E70126DFE70D
:104E3000002904D0AF239B00C150002070470220FE
:104E4000FCE7AE239B00C3588220800019508421C8
:104E500089005A5000207047AE239B00C258B43BD3
:104E6000D1500020704710B5AE239B00C258002AD5
:104E700016D0A43BD358002B01D0012010BD8523B0
:104E80009B000121D150043BD35803639BB2822184
:104E9000890052588839FF39FBF725FE0020EDE7DD
:104EA0000220EBE710B5AE239B00C258002A15D0B4
:104EB000037C002B09D180338121890052589B004B
:104EC0000121FBF719FE002010BD81239B00D25861
:104ED000C53BFF3B0121FBF70FFEF4E70220F3E7A0
:104EE00013488546FFF76CF812480168090E124A0C
:104EF000914205D1114812490160124812490160DE
:104F000012481349134A002302E0D458C450043312
:104F1000C4188C42F9D3104A104C002301E01360EE
:104F20000432A242FBD300F09DF9FBF75BFAFEE7E7
:104F300000180020040000001F00000018100240AC
:104F400001000000000001400000000000000020FF
:104F5000DC01002064600008DC010020F012002069
:104F6000FEE70000002310B5040003604360836087
:104F700081814366C2810361436183611900082214
:104F80005C3000F019F90B4B246263620A4BA36298
:104F90000A4BE3620A4B23630A4B9C4205D00A4B3F
:104FA0009C4202D0094B9C4203D12000583000F0B3
:104FB0007DF910BD215100084951000881510008B8
:104FC000AD510008A011002008120020701200202E
:104FD00010B5034A0349044800F06CF810BDC04600
:104FE00080010020595B00089001002041680B4BB4
:104FF00010B50400994201D000F0AEFDA168084B45
:10500000994202D0200000F0A7FDE168054B9942CB
:1050100002D0200000F0A0FD10BDC046A01100206D
:10502000081200207012002010B5094B094A042113
:105030001A6009480022FFF795FF0122092107485D
:10504000FFF790FF022212210548FFF78BFF10BDEA
:10505000D8120020D14F0008A01100200812002013
:105060007012002010B5024800F021F910BDC046B2
:10507000E112002010B5024800F01AF910BDC04638
:10508000E112002010B50400FFF7ECFF236A002BAB
:1050900002D0FFF7EFFF10BD044B2362044B1B68E7
:1050A000002BF6D1FFF7C0FFF3E7C046ED4F000835
:1050B000D8120020F7B51400002600900191A568D1
:1050C0006768013F04D52468002CF8D13000FEBD8C
:1050D000AB89012B08D90E22AB5E013304D0290025
:1050E0000098019B984706436835EAE70FB407B577
:1050F000054904AB086804CB8168019300F006FA07
:1051000003B008BC04B018478C01002010B5034B55
:1051100001001868826800F04AFD10BD8C01002073
:1051200070B50C000E25495F00F074F8002803DB11
:10513000636D1B18636570BDA389024A1340A38188
:10514000F9E7C046FFEFFFFFF8B51F008B890500A8
:105150000C001600DB0505D50E23C95E00220223D4
:1051600000F044F8A389054A28001340A3813200C7
:105170000E23E15E3B0000F061F8F8BDFFEFFFFF9A
:1051800070B50C000E25495F00F030F80C22A35ECC
:10519000421C03D1044A1340A38170BD80225201F6
:1051A0001343A3816065F8E7FFEFFFFF10B50E23FF
:1051B000C95E00F009F810BD03008218934200D1C7
:1051C000704719700133F9E7002370B5064D0400EC
:1051D00008002B6000F066FE431C03D12B68002BF7
:1051E00000D0236070BDC046DC12002070B5040002
:1051F000080011001A000023054D2B6000F06AFE24
:10520000431C03D12B68002B00D0236070BDC04627
:10521000DC12002070B50400080011001A00002301
:10522000054D2B6000F05EFE431C03D12B68002B64
:1052300000D0236070BDC046DC12002070B50400B1
:10524000080011001A000023054D2B6000F060FEDD
:10525000431C03D12B68002B00D0236070BDC046D7
:10526000DC12002070B500260C4C0D4D641BA41000
:10527000A64209D1002600F053FE0A4C0A4D641BD9
:10528000A410A64205D170BDB300EB589847013673
:10529000EEE7B300EB5898470136F2E75C60000890
:1052A0005C600008606000085C6000087047704740
:1052B0007047002310B59A4200D110BDCC5CC45495
:1052C0000133F8E770B505000C1E10D0043C2368CC
:1052D000002B00DAE418280000F0E0F81D4A1368FB
:1052E000002B05D163601460280000F0DFF870BD6A
:1052F000A34208D9206821188B42F3D119685B6852
:1053000009182160EEE71A005B68002B01D0A34268
:10531000F9D911685018A0420BD12068091850180B
:1053200011608342E0D118685B68411811605360D6
:10533000DAE7A04202D90C232B60D5E720682118B8
:105340008B4203D119685B6809182160636054605F
:10535000CAE7C046E812002070B50F4E0D00316854
:105360000400002902D100F0F7FC30602900200081
:1053700000F0F2FC431C03D101256D42280070BDF2
:105380000323C51C9D43A842F8D0291A200000F031
:10539000E3FC0130F2D1EFE7E4120020F7B503227D
:1053A000CB1C9343083305001F000C2B34D20C2771
:1053B000B94233D8280000F071F8374E33681C002A
:1053C000002C2FD139002800FFF7C6FF0400431C32
:1053D0005FD134680094009B002B4AD1002C52D03E
:1053E00023682800E3180099019300F0B5FC019BA5
:1053F000834248D123682800FF1A3900FFF7ACFF29
:10540000013040D02368DB19236033685A68002AD2
:1054100033D1009B336019E0002BC9DA0C232B60D9
:105420000020FEBD2168C91B20D40B290AD9E2192E
:105430002760A34204D1326063681160536005E0C5
:105440005A60F9E76268A3420ED13260280000F08A
:105450002DF8200007220B30231D9043C21A9842DA
:10546000DFD01B1AA350DCE75A60EFE72300646823
:10547000A6E7009C63680093ADE71A005B68A3424F
:10548000FBD10023DAE70C2328002B6000F00EF894
:10549000C6E70760DAE7C046E812002010B5024808
:1054A000FFF705FF10BDC046E012002010B502480E
:1054B000FFF7FEFE10BDC046E0120020936810B555
:1054C000013B9360002B04DA9469A34207DB0A29AD
:1054D00005D01368581C10601970080010BD00F04A
:1054E0009CFB0100F9E7F8B506000F001400D51881
:1054F000AC4201D1002007E021783A003000FFF7EC
:10550000DDFF0134431CF3D1F8BD0000F0B59FB0BE
:105510000D0016001C000290002804D0036A002B26
:1055200001D1FFF7AFFD6B6EDB0705D4AB899B059F
:1055300002D4A86DFFF7BBFEAB891B0702D52B6910
:10554000002B13D12900029800F0AAFB00280DD0EF
:105550006B6EDB0703D5012040421FB0F0BDAB8965
:105560009B05F8D4A86DFFF7A3FEF4E700232921DB
:1055700002AA52180B9320331370013102AA103380
:1055800052181370059434002378002B01D0252B7A
:1055900048D1A71BB4420BD03B003200290002982F
:1055A000FFF7A1FF013000D1AEE00B9BDB190B939D
:1055B0002378002B00D1A7E001225321002352427F
:1055C000079202AA5218661C069309930893137057
:1055D0001C93594F31780522380000F0CFFB741C22
:1055E000069906AB00281FD1CA0604D553272022EE
:1055F00002A8C01902700A0704D553272B2202A85B
:10560000C019027032782A2A15D0340000200A27E7
:10561000DA682178661C3039092950D9002811D060
:1056200009920FE00134AFE70123C01B83400B4315
:1056300026000693CDE7059A101D12680590002AF2
:1056400037DBDA6022782E2A0CD162782A2A3BD105
:10565000059A0234111D12680591002A01DA01220F
:1056600052425A60354E03223000217800F086FB0A
:1056700006AF002806D04023801B8340069A0134E1
:1056800013430693217806222D48661C397600F0D4
:1056900075FB002847D02B4B002B29D10722059BF7
:1056A00007339343083305930B9B03995B180B93C4
:1056B00069E75242DA6002220A430692C2E77A435D
:1056C000340001205218A4E700220A205A60110079
:1056D000130001342278661C303A092A03D9002BC2
:1056E000C0D00791BEE74143340001238918F1E798
:1056F00005AA009239002A00134B029800E000BF6F
:105700000390039B0133CFD16B6EDB0705D4AB89CC
:105710009B0502D4A86DFFF7CBFDAB895B0600D5D6
:1057200019E70B9819E705AA009239002A00064BE1
:10573000029800F07BF8E3E7286000082E6000087C
:105740003260000800000000E7540008F7B51600BA
:1057500001938A680B690C000090934200DA1300F1
:105760002200336043321278002A01D001333360C3
:1057700023689B0602D53368023333602268062310
:1057800015001D401A4227D0230043331B785A1EB0
:1057900093412268920630D4220001990098089D16
:1057A0004332A847013025D0062223680025134044
:1057B000042B05D13368E568ED1AEB43DB171D4078
:1057C000A3682269934201DD9B1AED180026B542B9
:1057D00020D1002010E00135E36832689B1AAB420B
:1057E000D2DD2200012301990098089F1932B847A1
:1057F0000130F0D101204042FEBD3020E11843319C
:10580000087021005A1C45310978A218433202332E
:105810001170C1E72200012301990098089F1A32F4
:10582000B8470130E6D00136D1E70000F0B58BB0C3
:1058300006920A0043320793059003920A7E0C00F9
:10584000109B782A09D8622A0BD8002A00D1BAE026
:105850007A490491582A00D18EE0250042352A70F9
:1058600022E0100063381528F7D8FAF729FC160053
:105870001F00F6FFF6FFF6FFF6FF1F00F6FFF6FF2C
:10588000F6FFF6FF9F0036007E00F6FFF6FFB00041
:10589000F6FF3600F6FFF6FF820025001A68423553
:1058A000111D196013682B7001239EE018680968A8
:1058B000021D0D060BD506681A60002E03DA2D2393
:1058C000039A764213705D4B0A27049318E006682A
:1058D0001A604906F1D536B2EFE70868196840C981
:1058E000050602D4400600D5B6B21960534B0A270C
:1058F00004936F2A00D1023F2300002243331A7021
:105900006368A360002B06DB04212268039D8A43A1
:10591000226033430CD0039D30003900FAF716FCA7
:10592000049B013D5B5C2B70330006009F42F3D962
:10593000082F09D12368DB0706D5626823699A42DC
:1059400002DC3023013D2B70039B5B1B2361079B13
:10595000210000930598069B09AAFFF7F7FE013086
:1059600048D1012040420BB0F0BD202209680A4313
:105970002260782232490491210045310A70196869
:10598000226840C9100602D4500600D5B6B219608C
:10599000D30702D5202313432360002E01D0102704
:1059A000AAE72022236893432360F8E71A680D686A
:1059B000101D4969186013682E0601D5196002E0B0
:1059C0006D06FBD519800023039D2361BFE71A688C
:1059D000111D1960156800212800626800F0CEF9D9
:1059E000002801D0401B6060636823610023039A94
:1059F0001370ACE72A00236906990598079DA8470C
:105A00000130AED023689B0715D4099BE06898420B
:105A1000A9DA1800A7E72200012306990598079E36
:105A20001932B04701309CD00135E368099A9B1ABE
:105A3000AB42F0DCE9E70025F7E7C0463960000833
:105A40004A600008F7B50C228B5E05000C001A07AF
:105A50005AD44A68002A02DC0A6C002A4FDDE76A41
:105A6000002F4CD0002280212E682A601A004901A4
:105A70000A400B4234D0626DA3895B0706D5636888
:105A8000D21A636B002B01D0236CD21A002328009A
:105A9000E76A216AB8470C23E25E431C06D12968F5
:105AA0001D292ED82B4BCB40DB072AD50023636062
:105AB00023692360D20405D5431C02D12B68002B37
:105AC00000D16065616B2E60002918D0230044333B
:105AD000994202D02800FFF7F5FB002363630EE034
